{
  "_format": "hh-sol-artifact-1",
  "contractName": "BuyMyRoom",
  "sourceName": "contracts/BuyMyRoom.sol",
  "abi": [
    {
      "inputs": [],
      "stateMutability": "nonpayable",
      "type": "constructor"
    },
    {
      "inputs": [
        {
          "internalType": "address",
          "name": "sender",
          "type": "address"
        },
        {
          "internalType": "uint256",
          "name": "tokenId",
          "type": "uint256"
        },
        {
          "internalType": "address",
          "name": "owner",
          "type": "address"
        }
      ],
      "name": "ERC721IncorrectOwner",
      "type": "error"
    },
    {
      "inputs": [
        {
          "internalType": "address",
          "name": "operator",
          "type": "address"
        },
        {
          "internalType": "uint256",
          "name": "tokenId",
          "type": "uint256"
        }
      ],
      "name": "ERC721InsufficientApproval",
      "type": "error"
    },
    {
      "inputs": [
        {
          "internalType": "address",
          "name": "approver",
          "type": "address"
        }
      ],
      "name": "ERC721InvalidApprover",
      "type": "error"
    },
    {
      "inputs": [
        {
          "internalType": "address",
          "name": "operator",
          "type": "address"
        }
      ],
      "name": "ERC721InvalidOperator",
      "type": "error"
    },
    {
      "inputs": [
        {
          "internalType": "address",
          "name": "owner",
          "type": "address"
        }
      ],
      "name": "ERC721InvalidOwner",
      "type": "error"
    },
    {
      "inputs": [
        {
          "internalType": "address",
          "name": "receiver",
          "type": "address"
        }
      ],
      "name": "ERC721InvalidReceiver",
      "type": "error"
    },
    {
      "inputs": [
        {
          "internalType": "address",
          "name": "sender",
          "type": "address"
        }
      ],
      "name": "ERC721InvalidSender",
      "type": "error"
    },
    {
      "inputs": [
        {
          "internalType": "uint256",
          "name": "tokenId",
          "type": "uint256"
        }
      ],
      "name": "ERC721NonexistentToken",
      "type": "error"
    },
    {
      "anonymous": false,
      "inputs": [
        {
          "indexed": true,
          "internalType": "address",
          "name": "owner",
          "type": "address"
        },
        {
          "indexed": true,
          "internalType": "address",
          "name": "approved",
          "type": "address"
        },
        {
          "indexed": true,
          "internalType": "uint256",
          "name": "tokenId",
          "type": "uint256"
        }
      ],
      "name": "Approval",
      "type": "event"
    },
    {
      "anonymous": false,
      "inputs": [
        {
          "indexed": true,
          "internalType": "address",
          "name": "owner",
          "type": "address"
        },
        {
          "indexed": true,
          "internalType": "address",
          "name": "operator",
          "type": "address"
        },
        {
          "indexed": false,
          "internalType": "bool",
          "name": "approved",
          "type": "bool"
        }
      ],
      "name": "ApprovalForAll",
      "type": "event"
    },
    {
      "anonymous": false,
      "inputs": [
        {
          "indexed": false,
          "internalType": "uint256",
          "name": "tokenId",
          "type": "uint256"
        },
        {
          "indexed": false,
          "internalType": "uint256",
          "name": "price",
          "type": "uint256"
        },
        {
          "indexed": false,
          "internalType": "address",
          "name": "owner",
          "type": "address"
        }
      ],
      "name": "HouseListed",
      "type": "event"
    },
    {
      "anonymous": false,
      "inputs": [
        {
          "indexed": false,
          "internalType": "uint256",
          "name": "tokenId",
          "type": "uint256"
        },
        {
          "indexed": false,
          "internalType": "uint256",
          "name": "price",
          "type": "uint256"
        },
        {
          "indexed": false,
          "internalType": "address",
          "name": "newOwner",
          "type": "address"
        }
      ],
      "name": "HouseSold",
      "type": "event"
    },
    {
      "anonymous": false,
      "inputs": [
        {
          "indexed": true,
          "internalType": "address",
          "name": "from",
          "type": "address"
        },
        {
          "indexed": true,
          "internalType": "address",
          "name": "to",
          "type": "address"
        },
        {
          "indexed": true,
          "internalType": "uint256",
          "name": "tokenId",
          "type": "uint256"
        }
      ],
      "name": "Transfer",
      "type": "event"
    },
    {
      "inputs": [],
      "name": "airdropHouses",
      "outputs": [],
      "stateMutability": "nonpayable",
      "type": "function"
    },
    {
      "inputs": [
        {
          "internalType": "address",
          "name": "to",
          "type": "address"
        },
        {
          "internalType": "uint256",
          "name": "tokenId",
          "type": "uint256"
        }
      ],
      "name": "approve",
      "outputs": [],
      "stateMutability": "nonpayable",
      "type": "function"
    },
    {
      "inputs": [
        {
          "internalType": "address",
          "name": "owner",
          "type": "address"
        }
      ],
      "name": "balanceOf",
      "outputs": [
        {
          "internalType": "uint256",
          "name": "",
          "type": "uint256"
        }
      ],
      "stateMutability": "view",
      "type": "function"
    },
    {
      "inputs": [
        {
          "internalType": "uint256",
          "name": "tokenId",
          "type": "uint256"
        }
      ],
      "name": "buyHouseWithTokens",
      "outputs": [],
      "stateMutability": "nonpayable",
      "type": "function"
    },
    {
      "inputs": [],
      "name": "buyTokens",
      "outputs": [],
      "stateMutability": "payable",
      "type": "function"
    },
    {
      "inputs": [
        {
          "internalType": "uint256",
          "name": "tokenId",
          "type": "uint256"
        }
      ],
      "name": "getApproved",
      "outputs": [
        {
          "internalType": "address",
          "name": "",
          "type": "address"
        }
      ],
      "stateMutability": "view",
      "type": "function"
    },
    {
      "inputs": [
        {
          "internalType": "uint256",
          "name": "tokenId",
          "type": "uint256"
        }
      ],
      "name": "getHouseInfo",
      "outputs": [
        {
          "components": [
            {
              "internalType": "address",
              "name": "owner",
              "type": "address"
            },
            {
              "internalType": "uint256",
              "name": "listedTimestamp",
              "type": "uint256"
            },
            {
              "internalType": "uint256",
              "name": "price",
              "type": "uint256"
            },
            {
              "internalType": "bool",
              "name": "isForSale",
              "type": "bool"
            }
          ],
          "internalType": "struct BuyMyRoom.House",
          "name": "",
          "type": "tuple"
        }
      ],
      "stateMutability": "view",
      "type": "function"
    },
    {
      "inputs": [
        {
          "internalType": "uint256",
          "name": "tokenId",
          "type": "uint256"
        }
      ],
      "name": "getHouseOwner",
      "outputs": [
        {
          "internalType": "address",
          "name": "",
          "type": "address"
        }
      ],
      "stateMutability": "view",
      "type": "function"
    },
    {
      "inputs": [
        {
          "internalType": "uint256",
          "name": "tokenId",
          "type": "uint256"
        }
      ],
      "name": "getHousePrice",
      "outputs": [
        {
          "internalType": "uint256",
          "name": "",
          "type": "uint256"
        }
      ],
      "stateMutability": "view",
      "type": "function"
    },
    {
      "inputs": [],
      "name": "getHousesForSale",
      "outputs": [
        {
          "internalType": "uint256[]",
          "name": "",
          "type": "uint256[]"
        }
      ],
      "stateMutability": "view",
      "type": "function"
    },
    {
      "inputs": [
        {
          "internalType": "address",
          "name": "user",
          "type": "address"
        }
      ],
      "name": "getUserHouses",
      "outputs": [
        {
          "internalType": "uint256[]",
          "name": "",
          "type": "uint256[]"
        }
      ],
      "stateMutability": "view",
      "type": "function"
    },
    {
      "inputs": [],
      "name": "getUserTokenBalance",
      "outputs": [
        {
          "internalType": "uint256",
          "name": "",
          "type": "uint256"
        }
      ],
      "stateMutability": "view",
      "type": "function"
    },
    {
      "inputs": [
        {
          "internalType": "address",
          "name": "",
          "type": "address"
        }
      ],
      "name": "hasClaimedHouses",
      "outputs": [
        {
          "internalType": "bool",
          "name": "",
          "type": "bool"
        }
      ],
      "stateMutability": "view",
      "type": "function"
    },
    {
      "inputs": [
        {
          "internalType": "uint256",
          "name": "",
          "type": "uint256"
        }
      ],
      "name": "houses",
      "outputs": [
        {
          "internalType": "address",
          "name": "owner",
          "type": "address"
        },
        {
          "internalType": "uint256",
          "name": "listedTimestamp",
          "type": "uint256"
        },
        {
          "internalType": "uint256",
          "name": "price",
          "type": "uint256"
        },
        {
          "internalType": "bool",
          "name": "isForSale",
          "type": "bool"
        }
      ],
      "stateMutability": "view",
      "type": "function"
    },
    {
      "inputs": [
        {
          "internalType": "address",
          "name": "owner",
          "type": "address"
        },
        {
          "internalType": "address",
          "name": "operator",
          "type": "address"
        }
      ],
      "name": "isApprovedForAll",
      "outputs": [
        {
          "internalType": "bool",
          "name": "",
          "type": "bool"
        }
      ],
      "stateMutability": "view",
      "type": "function"
    },
    {
      "inputs": [
        {
          "internalType": "uint256",
          "name": "tokenId",
          "type": "uint256"
        },
        {
          "internalType": "uint256",
          "name": "price",
          "type": "uint256"
        }
      ],
      "name": "listHouse",
      "outputs": [],
      "stateMutability": "nonpayable",
      "type": "function"
    },
    {
      "inputs": [],
      "name": "listingFeeRate",
      "outputs": [
        {
          "internalType": "uint256",
          "name": "",
          "type": "uint256"
        }
      ],
      "stateMutability": "view",
      "type": "function"
    },
    {
      "inputs": [],
      "name": "manager",
      "outputs": [
        {
          "internalType": "address",
          "name": "",
          "type": "address"
        }
      ],
      "stateMutability": "view",
      "type": "function"
    },
    {
      "inputs": [],
      "name": "myToken",
      "outputs": [
        {
          "internalType": "contract MyERC20",
          "name": "",
          "type": "address"
        }
      ],
      "stateMutability": "view",
      "type": "function"
    },
    {
      "inputs": [],
      "name": "name",
      "outputs": [
        {
          "internalType": "string",
          "name": "",
          "type": "string"
        }
      ],
      "stateMutability": "view",
      "type": "function"
    },
    {
      "inputs": [],
      "name": "nextTokenId",
      "outputs": [
        {
          "internalType": "uint256",
          "name": "",
          "type": "uint256"
        }
      ],
      "stateMutability": "view",
      "type": "function"
    },
    {
      "inputs": [
        {
          "internalType": "uint256",
          "name": "tokenId",
          "type": "uint256"
        }
      ],
      "name": "ownerOf",
      "outputs": [
        {
          "internalType": "address",
          "name": "",
          "type": "address"
        }
      ],
      "stateMutability": "view",
      "type": "function"
    },
    {
      "inputs": [
        {
          "internalType": "address",
          "name": "from",
          "type": "address"
        },
        {
          "internalType": "address",
          "name": "to",
          "type": "address"
        },
        {
          "internalType": "uint256",
          "name": "tokenId",
          "type": "uint256"
        }
      ],
      "name": "safeTransferFrom",
      "outputs": [],
      "stateMutability": "nonpayable",
      "type": "function"
    },
    {
      "inputs": [
        {
          "internalType": "address",
          "name": "from",
          "type": "address"
        },
        {
          "internalType": "address",
          "name": "to",
          "type": "address"
        },
        {
          "internalType": "uint256",
          "name": "tokenId",
          "type": "uint256"
        },
        {
          "internalType": "bytes",
          "name": "data",
          "type": "bytes"
        }
      ],
      "name": "safeTransferFrom",
      "outputs": [],
      "stateMutability": "nonpayable",
      "type": "function"
    },
    {
      "inputs": [
        {
          "internalType": "address",
          "name": "operator",
          "type": "address"
        },
        {
          "internalType": "bool",
          "name": "approved",
          "type": "bool"
        }
      ],
      "name": "setApprovalForAll",
      "outputs": [],
      "stateMutability": "nonpayable",
      "type": "function"
    },
    {
      "inputs": [
        {
          "internalType": "bytes4",
          "name": "interfaceId",
          "type": "bytes4"
        }
      ],
      "name": "supportsInterface",
      "outputs": [
        {
          "internalType": "bool",
          "name": "",
          "type": "bool"
        }
      ],
      "stateMutability": "view",
      "type": "function"
    },
    {
      "inputs": [],
      "name": "symbol",
      "outputs": [
        {
          "internalType": "string",
          "name": "",
          "type": "string"
        }
      ],
      "stateMutability": "view",
      "type": "function"
    },
    {
      "inputs": [
        {
          "internalType": "uint256",
          "name": "tokenId",
          "type": "uint256"
        }
      ],
      "name": "tokenURI",
      "outputs": [
        {
          "internalType": "string",
          "name": "",
          "type": "string"
        }
      ],
      "stateMutability": "view",
      "type": "function"
    },
    {
      "inputs": [
        {
          "internalType": "address",
          "name": "from",
          "type": "address"
        },
        {
          "internalType": "address",
          "name": "to",
          "type": "address"
        },
        {
          "internalType": "uint256",
          "name": "tokenId",
          "type": "uint256"
        }
      ],
      "name": "transferFrom",
      "outputs": [],
      "stateMutability": "nonpayable",
      "type": "function"
    }
  ],
  "bytecode": "0x608060405260016007553480156200001657600080fd5b506040518060400160405280600881526020017f486f7573654e46540000000000000000000000000000000000000000000000008152506040518060400160405280600481526020017f484e4654000000000000000000000000000000000000000000000000000000008152508160009081620000949190620003f7565b508060019081620000a69190620003f7565b50505033600860006101000a81548173ffffffffffffffffffffffffffffffffffffffff021916908373ffffffffffffffffffffffffffffffffffffffff160217905550600160068190555060405162000100906200016f565b6200010b906200058f565b604051809103906000f08015801562000128573d6000803e3d6000fd5b50600960006101000a81548173ffffffffffffffffffffffffffffffffffffffff021916908373ffffffffffffffffffffffffffffffffffffffff160217905550620005c6565b611b068062003f6883390190565b600081519050919050565b7f4e487b7100000000000000000000000000000000000000000000000000000000600052604160045260246000fd5b7f4e487b7100000000000000000000000000000000000000000000000000000000600052602260045260246000fd5b60006002820490506001821680620001ff57607f821691505b602082108103620002155762000214620001b7565b5b50919050565b60008190508160005260206000209050919050565b60006020601f8301049050919050565b600082821b905092915050565b6000600883026200027f7fffffffffffffffffffffffffffffffffffffffffffffffffffffffffffffffff8262000240565b6200028b868362000240565b95508019841693508086168417925050509392505050565b6000819050919050565b6000819050919050565b6000620002d8620002d2620002cc84620002a3565b620002ad565b620002a3565b9050919050565b6000819050919050565b620002f483620002b7565b6200030c6200030382620002df565b8484546200024d565b825550505050565b600090565b6200032362000314565b62000330818484620002e9565b505050565b5b8181101562000358576200034c60008262000319565b60018101905062000336565b5050565b601f821115620003a75762000371816200021b565b6200037c8462000230565b810160208510156200038c578190505b620003a46200039b8562000230565b83018262000335565b50505b505050565b600082821c905092915050565b6000620003cc60001984600802620003ac565b1980831691505092915050565b6000620003e78383620003b9565b9150826002028217905092915050565b62000402826200017d565b67ffffffffffffffff8111156200041e576200041d62000188565b5b6200042a8254620001e6565b620004378282856200035c565b600060209050601f8311600181146200046f57600084156200045a578287015190505b620004668582620003d9565b865550620004d6565b601f1984166200047f866200021b565b60005b82811015620004a95784890151825560018201915060208501945060208101905062000482565b86831015620004c95784890151620004c5601f891682620003b9565b8355505b6001600288020188555050505b505050505050565b600082825260208201905092915050565b7f5a4a55546f6b656e000000000000000000000000000000000000000000000000600082015250565b600062000527600883620004de565b91506200053482620004ef565b602082019050919050565b7f5a4a55546f6b656e53796d626f6c000000000000000000000000000000000000600082015250565b600062000577600e83620004de565b915062000584826200053f565b602082019050919050565b60006040820190508181036000830152620005aa8162000518565b90508181036020830152620005bf8162000568565b9050919050565b61399280620005d66000396000f3fe6080604052600436106101c25760003560e01c806399b23178116100f7578063b24b458611610095578063c87b56dd11610064578063c87b56dd1461067d578063d0febe4c146106ba578063e7e95ada146106c4578063e985e9c514610701576101c2565b8063b24b4586146105c3578063b88d4fde146105ec578063b8fcf93714610615578063c7dc693614610640576101c2565b8063a22cb465116100d1578063a22cb465146104f2578063a3405f391461051b578063ad50f56d14610546578063aeda852f14610583576101c2565b806399b23178146104615780639e407d201461048a5780639e4ffa7f146104c7576101c2565b8063415a0eba116101645780636352211e1161013e5780636352211e1461039157806370a08231146103ce57806375794a3c1461040b57806395d89b4114610436576101c2565b8063415a0eba1461030057806342842e0e1461033d578063481c6a7514610366576101c2565b8063095ea7b3116101a0578063095ea7b31461026c578063099bc1e2146102955780630dcda8b5146102ac57806323b872dd146102d7576101c2565b806301ffc9a7146101c757806306fdde0314610204578063081812fc1461022f575b600080fd5b3480156101d357600080fd5b506101ee60048036038101906101e99190612a3c565b61073e565b6040516101fb9190612a84565b60405180910390f35b34801561021057600080fd5b50610219610820565b6040516102269190612b2f565b60405180910390f35b34801561023b57600080fd5b5061025660048036038101906102519190612b87565b6108b2565b6040516102639190612bf5565b60405180910390f35b34801561027857600080fd5b50610293600480360381019061028e9190612c3c565b6108ce565b005b3480156102a157600080fd5b506102aa6108e4565b005b3480156102b857600080fd5b506102c1610add565b6040516102ce9190612c8b565b60405180910390f35b3480156102e357600080fd5b506102fe60048036038101906102f99190612ca6565b610ae3565b005b34801561030c57600080fd5b5061032760048036038101906103229190612b87565b610be5565b6040516103349190612c8b565b60405180910390f35b34801561034957600080fd5b50610364600480360381019061035f9190612ca6565b610c18565b005b34801561037257600080fd5b5061037b610c38565b6040516103889190612bf5565b60405180910390f35b34801561039d57600080fd5b506103b860048036038101906103b39190612b87565b610c5e565b6040516103c59190612bf5565b60405180910390f35b3480156103da57600080fd5b506103f560048036038101906103f09190612cf9565b610c70565b6040516104029190612c8b565b60405180910390f35b34801561041757600080fd5b50610420610d2a565b60405161042d9190612c8b565b60405180910390f35b34801561044257600080fd5b5061044b610d30565b6040516104589190612b2f565b60405180910390f35b34801561046d57600080fd5b5061048860048036038101906104839190612d26565b610dc2565b005b34801561049657600080fd5b506104b160048036038101906104ac9190612cf9565b610f40565b6040516104be9190612e24565b60405180910390f35b3480156104d357600080fd5b506104dc611048565b6040516104e99190612e24565b60405180910390f35b3480156104fe57600080fd5b5061051960048036038101906105149190612e72565b61118a565b005b34801561052757600080fd5b506105306111a0565b60405161053d9190612c8b565b60405180910390f35b34801561055257600080fd5b5061056d60048036038101906105689190612b87565b611243565b60405161057a9190612f25565b60405180910390f35b34801561058f57600080fd5b506105aa60048036038101906105a59190612b87565b6112f5565b6040516105ba9493929190612f40565b60405180910390f35b3480156105cf57600080fd5b506105ea60048036038101906105e59190612b87565b611352565b005b3480156105f857600080fd5b50610613600480360381019061060e91906130ba565b6117ff565b005b34801561062157600080fd5b5061062a61181c565b604051610637919061319c565b60405180910390f35b34801561064c57600080fd5b5061066760048036038101906106629190612cf9565b611842565b6040516106749190612a84565b60405180910390f35b34801561068957600080fd5b506106a4600480360381019061069f9190612b87565b611862565b6040516106b19190612b2f565b60405180910390f35b6106c26118cb565b005b3480156106d057600080fd5b506106eb60048036038101906106e69190612b87565b611a0e565b6040516106f89190612bf5565b60405180910390f35b34801561070d57600080fd5b50610728600480360381019061072391906131b7565b611a4e565b6040516107359190612a84565b60405180910390f35b60007f80ac58cd000000000000000000000000000000000000000000000000000000007bffffffffffffffffffffffffffffffffffffffffffffffffffffffff1916827bffffffffffffffffffffffffffffffffffffffffffffffffffffffff1916148061080957507f5b5e139f000000000000000000000000000000000000000000000000000000007bffffffffffffffffffffffffffffffffffffffffffffffffffffffff1916827bffffffffffffffffffffffffffffffffffffffffffffffffffffffff1916145b80610819575061081882611ae2565b5b9050919050565b60606000805461082f90613226565b80601f016020809104026020016040519081016040528092919081815260200182805461085b90613226565b80156108a85780601f1061087d576101008083540402835291602001916108a8565b820191906000526020600020905b81548152906001019060200180831161088b57829003601f168201915b5050505050905090565b60006108bd82611b4c565b506108c782611bd4565b9050919050565b6108e082826108db611c11565b611c19565b5050565b600a60003373ffffffffffffffffffffffffffffffffffffffff1673ffffffffffffffffffffffffffffffffffffffff16815260200190815260200160002060009054906101000a900460ff1615610971576040517f08c379a0000000000000000000000000000000000000000000000000000000008152600401610968906132a3565b60405180910390fd5b60005b6003811015610a825761098933600654611c2b565b60405180608001604052803373ffffffffffffffffffffffffffffffffffffffff1681526020014281526020016000815260200160001515815250600b6000600654815260200190815260200160002060008201518160000160006101000a81548173ffffffffffffffffffffffffffffffffffffffff021916908373ffffffffffffffffffffffffffffffffffffffff160217905550602082015181600101556040820151816002015560608201518160030160006101000a81548160ff02191690831515021790555090505060066000815480929190610a6a906132f2565b91905055508080610a7a906132f2565b915050610974565b506001600a60003373ffffffffffffffffffffffffffffffffffffffff1673ffffffffffffffffffffffffffffffffffffffff16815260200190815260200160002060006101000a81548160ff021916908315150217905550565b60075481565b600073ffffffffffffffffffffffffffffffffffffffff168273ffffffffffffffffffffffffffffffffffffffff1603610b555760006040517f64a0ae92000000000000000000000000000000000000000000000000000000008152600401610b4c9190612bf5565b60405180910390fd5b6000610b698383610b64611c11565b611d24565b90508373ffffffffffffffffffffffffffffffffffffffff168173ffffffffffffffffffffffffffffffffffffffff1614610bdf578382826040517f64283d7b000000000000000000000000000000000000000000000000000000008152600401610bd69392919061333a565b60405180910390fd5b50505050565b6000670de0b6b3a7640000600b600084815260200190815260200160002060020154610c1191906133a0565b9050919050565b610c33838383604051806020016040528060008152506117ff565b505050565b600860009054906101000a900473ffffffffffffffffffffffffffffffffffffffff1681565b6000610c6982611b4c565b9050919050565b60008073ffffffffffffffffffffffffffffffffffffffff168273ffffffffffffffffffffffffffffffffffffffff1603610ce35760006040517f89c62b64000000000000000000000000000000000000000000000000000000008152600401610cda9190612bf5565b60405180910390fd5b600360008373ffffffffffffffffffffffffffffffffffffffff1673ffffffffffffffffffffffffffffffffffffffff168152602001908152602001600020549050919050565b60065481565b606060018054610d3f90613226565b80601f0160208091040260200160405190810160405280929190818152602001828054610d6b90613226565b8015610db85780601f10610d8d57610100808354040283529160200191610db8565b820191906000526020600020905b815481529060010190602001808311610d9b57829003601f168201915b5050505050905090565b3373ffffffffffffffffffffffffffffffffffffffff16610de283610c5e565b73ffffffffffffffffffffffffffffffffffffffff1614610e38576040517f08c379a0000000000000000000000000000000000000000000000000000000008152600401610e2f9061341d565b60405180910390fd5b600b600083815260200190815260200160002060030160009054906101000a900460ff1615610e9c576040517f08c379a0000000000000000000000000000000000000000000000000000000008152600401610e9390613489565b60405180910390fd5b80600b6000848152602001908152602001600020600201819055506001600b600084815260200190815260200160002060030160006101000a81548160ff02191690831515021790555042600b6000848152602001908152602001600020600101819055507f60b3e540896cf4a419e7b7274a1f1282223f5d92ca6f0152cf820fe457fb4843828233604051610f34939291906134a9565b60405180910390a15050565b606060006001600654610f5391906134e0565b90506000610f6084610c70565b905060008167ffffffffffffffff811115610f7e57610f7d612f8f565b5b604051908082528060200260200182016040528015610fac5781602001602082028036833780820191505090505b509050600080600190505b84811161103b578673ffffffffffffffffffffffffffffffffffffffff16610fde82610c5e565b73ffffffffffffffffffffffffffffffffffffffff1603611028578083838151811061100d5761100c613514565b5b6020026020010181815250508180611024906132f2565b9250505b8080611033906132f2565b915050610fb7565b5081945050505050919050565b60606000600160065461105b91906134e0565b9050600080600190505b8281116110b757600b600082815260200190815260200160002060030160009054906101000a900460ff16156110a45781806110a0906132f2565b9250505b80806110af906132f2565b915050611065565b5060008167ffffffffffffffff8111156110d4576110d3612f8f565b5b6040519080825280602002602001820160405280156111025781602001602082028036833780820191505090505b509050600080600190505b84811161117f57600b600082815260200190815260200160002060030160009054906101000a900460ff161561116c578083838151811061115157611150613514565b5b6020026020010181815250508180611168906132f2565b9250505b8080611177906132f2565b91505061110d565b508194505050505090565b61119c611195611c11565b8383611f3e565b5050565b6000600960009054906101000a900473ffffffffffffffffffffffffffffffffffffffff1673ffffffffffffffffffffffffffffffffffffffff166370a08231336040518263ffffffff1660e01b81526004016111fd9190612bf5565b602060405180830381865afa15801561121a573d6000803e3d6000fd5b505050506040513d601f19601f8201168201806040525081019061123e9190613558565b905090565b61124b612990565b600b60008381526020019081526020016000206040518060800160405290816000820160009054906101000a900473ffffffffffffffffffffffffffffffffffffffff1673ffffffffffffffffffffffffffffffffffffffff1673ffffffffffffffffffffffffffffffffffffffff16815260200160018201548152602001600282015481526020016003820160009054906101000a900460ff1615151515815250509050919050565b600b6020528060005260406000206000915090508060000160009054906101000a900473ffffffffffffffffffffffffffffffffffffffff16908060010154908060020154908060030160009054906101000a900460ff16905084565b600b600082815260200190815260200160002060030160009054906101000a900460ff166113b5576040517f08c379a00000000000000000000000000000000000000000000000000000000081526004016113ac906135d1565b60405180910390fd5b3373ffffffffffffffffffffffffffffffffffffffff16600b600083815260200190815260200160002060000160009054906101000a900473ffffffffffffffffffffffffffffffffffffffff1673ffffffffffffffffffffffffffffffffffffffff1603611459576040517f08c379a00000000000000000000000000000000000000000000000000000000081526004016114509061363d565b60405180910390fd5b600061146482610c5e565b90506000600b600084815260200190815260200160002060020154905080600960009054906101000a900473ffffffffffffffffffffffffffffffffffffffff1673ffffffffffffffffffffffffffffffffffffffff166370a08231336040518263ffffffff1660e01b81526004016114dd9190612bf5565b602060405180830381865afa1580156114fa573d6000803e3d6000fd5b505050506040513d601f19601f8201168201806040525081019061151e9190613558565b101561155f576040517f08c379a0000000000000000000000000000000000000000000000000000000008152600401611556906136a9565b60405180910390fd5b6000816064600754612710600b6000898152602001908152602001600020600101544261158c91906134e0565b61159691906133a0565b6115a091906136c9565b6115aa91906133a0565b6115b491906136c9565b9050600081836115c491906134e0565b9050600960009054906101000a900473ffffffffffffffffffffffffffffffffffffffff1673ffffffffffffffffffffffffffffffffffffffff166323b872dd3386846040518463ffffffff1660e01b81526004016116259392919061370b565b6020604051808303816000875af1158015611644573d6000803e3d6000fd5b505050506040513d601f19601f820116820180604052508101906116689190613757565b50600960009054906101000a900473ffffffffffffffffffffffffffffffffffffffff1673ffffffffffffffffffffffffffffffffffffffff166323b872dd33600860009054906101000a900473ffffffffffffffffffffffffffffffffffffffff16856040518463ffffffff1660e01b81526004016116ea9392919061370b565b6020604051808303816000875af1158015611709573d6000803e3d6000fd5b505050506040513d601f19601f8201168201806040525081019061172d9190613757565b506000600b600087815260200190815260200160002060030160006101000a81548160ff0219169083151502179055506117688433876120ad565b33600b600087815260200190815260200160002060000160006101000a81548173ffffffffffffffffffffffffffffffffffffffff021916908373ffffffffffffffffffffffffffffffffffffffff1602179055507fb6e6b0aa920ed5fbb8dd058bbd321e9b2b8780062b0dd9bc84019b47706f73ab8584336040516117f0939291906134a9565b60405180910390a15050505050565b61180a848484610ae3565b6118168484848461221a565b50505050565b600960009054906101000a900473ffffffffffffffffffffffffffffffffffffffff1681565b600a6020528060005260406000206000915054906101000a900460ff1681565b606061186d82611b4c565b5060006118786123d1565b9050600081511161189857604051806020016040528060008152506118c3565b806118a2846123e8565b6040516020016118b39291906137c0565b6040516020818303038152906040525b915050919050565b6000341161190e576040517f08c379a000000000000000000000000000000000000000000000000000000000815260040161190590613830565b60405180910390fd5b6000349050600960009054906101000a900473ffffffffffffffffffffffffffffffffffffffff1673ffffffffffffffffffffffffffffffffffffffff166340c10f1933836040518363ffffffff1660e01b8152600401611970929190613850565b600060405180830381600087803b15801561198a57600080fd5b505af115801561199e573d6000803e3d6000fd5b50505050600860009054906101000a900473ffffffffffffffffffffffffffffffffffffffff1673ffffffffffffffffffffffffffffffffffffffff166108fc349081150290604051600060405180830381858888f19350505050158015611a0a573d6000803e3d6000fd5b5050565b6000600b600083815260200190815260200160002060000160009054906101000a900473ffffffffffffffffffffffffffffffffffffffff169050919050565b6000600560008473ffffffffffffffffffffffffffffffffffffffff1673ffffffffffffffffffffffffffffffffffffffff16815260200190815260200160002060008373ffffffffffffffffffffffffffffffffffffffff1673ffffffffffffffffffffffffffffffffffffffff16815260200190815260200160002060009054906101000a900460ff16905092915050565b60007f01ffc9a7000000000000000000000000000000000000000000000000000000007bffffffffffffffffffffffffffffffffffffffffffffffffffffffff1916827bffffffffffffffffffffffffffffffffffffffffffffffffffffffff1916149050919050565b600080611b58836124b6565b9050600073ffffffffffffffffffffffffffffffffffffffff168173ffffffffffffffffffffffffffffffffffffffff1603611bcb57826040517f7e273289000000000000000000000000000000000000000000000000000000008152600401611bc29190612c8b565b60405180910390fd5b80915050919050565b60006004600083815260200190815260200160002060009054906101000a900473ffffffffffffffffffffffffffffffffffffffff169050919050565b600033905090565b611c2683838360016124f3565b505050565b600073ffffffffffffffffffffffffffffffffffffffff168273ffffffffffffffffffffffffffffffffffffffff1603611c9d5760006040517f64a0ae92000000000000000000000000000000000000000000000000000000008152600401611c949190612bf5565b60405180910390fd5b6000611cab83836000611d24565b9050600073ffffffffffffffffffffffffffffffffffffffff168173ffffffffffffffffffffffffffffffffffffffff1614611d1f5760006040517f73c6ac6e000000000000000000000000000000000000000000000000000000008152600401611d169190612bf5565b60405180910390fd5b505050565b600080611d30846124b6565b9050600073ffffffffffffffffffffffffffffffffffffffff168373ffffffffffffffffffffffffffffffffffffffff1614611d7257611d718184866126b8565b5b600073ffffffffffffffffffffffffffffffffffffffff168173ffffffffffffffffffffffffffffffffffffffff1614611e0357611db46000856000806124f3565b6001600360008373ffffffffffffffffffffffffffffffffffffffff1673ffffffffffffffffffffffffffffffffffffffff168152602001908152602001600020600082825403925050819055505b600073ffffffffffffffffffffffffffffffffffffffff168573ffffffffffffffffffffffffffffffffffffffff1614611e86576001600360008773ffffffffffffffffffffffffffffffffffffffff1673ffffffffffffffffffffffffffffffffffffffff168152602001908152602001600020600082825401925050819055505b846002600086815260200190815260200160002060006101000a81548173ffffffffffffffffffffffffffffffffffffffff021916908373ffffffffffffffffffffffffffffffffffffffff160217905550838573ffffffffffffffffffffffffffffffffffffffff168273ffffffffffffffffffffffffffffffffffffffff167fddf252ad1be2c89b69c2b068fc378daa952ba7f163c4a11628f55a4df523b3ef60405160405180910390a4809150509392505050565b600073ffffffffffffffffffffffffffffffffffffffff168273ffffffffffffffffffffffffffffffffffffffff1603611faf57816040517f5b08ba18000000000000000000000000000000000000000000000000000000008152600401611fa69190612bf5565b60405180910390fd5b80600560008573ffffffffffffffffffffffffffffffffffffffff1673ffffffffffffffffffffffffffffffffffffffff16815260200190815260200160002060008473ffffffffffffffffffffffffffffffffffffffff1673ffffffffffffffffffffffffffffffffffffffff16815260200190815260200160002060006101000a81548160ff0219169083151502179055508173ffffffffffffffffffffffffffffffffffffffff168373ffffffffffffffffffffffffffffffffffffffff167f17307eab39ab6107e8899845ad3d59bd9653f200f220920489ca2b5937696c31836040516120a09190612a84565b60405180910390a3505050565b600073ffffffffffffffffffffffffffffffffffffffff168273ffffffffffffffffffffffffffffffffffffffff160361211f5760006040517f64a0ae920000000000000000000000000000000000000000000000000000000081526004016121169190612bf5565b60405180910390fd5b600061212d83836000611d24565b9050600073ffffffffffffffffffffffffffffffffffffffff168173ffffffffffffffffffffffffffffffffffffffff16036121a057816040517f7e2732890000000000000000000000000000000000000000000000000000000081526004016121979190612c8b565b60405180910390fd5b8373ffffffffffffffffffffffffffffffffffffffff168173ffffffffffffffffffffffffffffffffffffffff1614612214578382826040517f64283d7b00000000000000000000000000000000000000000000000000000000815260040161220b9392919061333a565b60405180910390fd5b50505050565b60008373ffffffffffffffffffffffffffffffffffffffff163b11156123cb578273ffffffffffffffffffffffffffffffffffffffff1663150b7a0261225e611c11565b8685856040518563ffffffff1660e01b815260040161228094939291906138ce565b6020604051808303816000875af19250505080156122bc57506040513d601f19601f820116820180604052508101906122b9919061392f565b60015b612340573d80600081146122ec576040519150601f19603f3d011682016040523d82523d6000602084013e6122f1565b606091505b50600081510361233857836040517f64a0ae9200000000000000000000000000000000000000000000000000000000815260040161232f9190612bf5565b60405180910390fd5b805181602001fd5b63150b7a0260e01b7bffffffffffffffffffffffffffffffffffffffffffffffffffffffff1916817bffffffffffffffffffffffffffffffffffffffffffffffffffffffff1916146123c957836040517f64a0ae920000000000000000000000000000000000000000000000000000000081526004016123c09190612bf5565b60405180910390fd5b505b50505050565b606060405180602001604052806000815250905090565b6060600060016123f78461277c565b01905060008167ffffffffffffffff81111561241657612415612f8f565b5b6040519080825280601f01601f1916602001820160405280156124485781602001600182028036833780820191505090505b509050600082602001820190505b6001156124ab578080600190039150507f3031323334353637383961626364656600000000000000000000000000000000600a86061a8153600a858161249f5761249e613371565b5b04945060008503612456575b819350505050919050565b60006002600083815260200190815260200160002060009054906101000a900473ffffffffffffffffffffffffffffffffffffffff169050919050565b808061252c5750600073ffffffffffffffffffffffffffffffffffffffff168273ffffffffffffffffffffffffffffffffffffffff1614155b1561266057600061253c84611b4c565b9050600073ffffffffffffffffffffffffffffffffffffffff168373ffffffffffffffffffffffffffffffffffffffff16141580156125a757508273ffffffffffffffffffffffffffffffffffffffff168173ffffffffffffffffffffffffffffffffffffffff1614155b80156125ba57506125b88184611a4e565b155b156125fc57826040517fa9fbf51f0000000000000000000000000000000000000000000000000000000081526004016125f39190612bf5565b60405180910390fd5b811561265e57838573ffffffffffffffffffffffffffffffffffffffff168273ffffffffffffffffffffffffffffffffffffffff167f8c5be1e5ebec7d5bd14f71427d1e84f3dd0314c0f7b2291e5b200ac8c7c3b92560405160405180910390a45b505b836004600085815260200190815260200160002060006101000a81548173ffffffffffffffffffffffffffffffffffffffff021916908373ffffffffffffffffffffffffffffffffffffffff16021790555050505050565b6126c38383836128cf565b61277757600073ffffffffffffffffffffffffffffffffffffffff168373ffffffffffffffffffffffffffffffffffffffff160361273857806040517f7e27328900000000000000000000000000000000000000000000000000000000815260040161272f9190612c8b565b60405180910390fd5b81816040517f177e802f00000000000000000000000000000000000000000000000000000000815260040161276e929190613850565b60405180910390fd5b505050565b600080600090507a184f03e93ff9f4daa797ed6e38ed64bf6a1f01000000000000000083106127da577a184f03e93ff9f4daa797ed6e38ed64bf6a1f01000000000000000083816127d0576127cf613371565b5b0492506040810190505b6d04ee2d6d415b85acef81000000008310612817576d04ee2d6d415b85acef8100000000838161280d5761280c613371565b5b0492506020810190505b662386f26fc10000831061284657662386f26fc10000838161283c5761283b613371565b5b0492506010810190505b6305f5e100831061286f576305f5e100838161286557612864613371565b5b0492506008810190505b612710831061289457612710838161288a57612889613371565b5b0492506004810190505b606483106128b757606483816128ad576128ac613371565b5b0492506002810190505b600a83106128c6576001810190505b80915050919050565b60008073ffffffffffffffffffffffffffffffffffffffff168373ffffffffffffffffffffffffffffffffffffffff161415801561298757508273ffffffffffffffffffffffffffffffffffffffff168473ffffffffffffffffffffffffffffffffffffffff16148061294857506129478484611a4e565b5b8061298657508273ffffffffffffffffffffffffffffffffffffffff1661296e83611bd4565b73ffffffffffffffffffffffffffffffffffffffff16145b5b90509392505050565b6040518060800160405280600073ffffffffffffffffffffffffffffffffffffffff16815260200160008152602001600081526020016000151581525090565b6000604051905090565b600080fd5b600080fd5b60007fffffffff0000000000000000000000000000000000000000000000000000000082169050919050565b612a19816129e4565b8114612a2457600080fd5b50565b600081359050612a3681612a10565b92915050565b600060208284031215612a5257612a516129da565b5b6000612a6084828501612a27565b91505092915050565b60008115159050919050565b612a7e81612a69565b82525050565b6000602082019050612a996000830184612a75565b92915050565b600081519050919050565b600082825260208201905092915050565b60005b83811015612ad9578082015181840152602081019050612abe565b60008484015250505050565b6000601f19601f8301169050919050565b6000612b0182612a9f565b612b0b8185612aaa565b9350612b1b818560208601612abb565b612b2481612ae5565b840191505092915050565b60006020820190508181036000830152612b498184612af6565b905092915050565b6000819050919050565b612b6481612b51565b8114612b6f57600080fd5b50565b600081359050612b8181612b5b565b92915050565b600060208284031215612b9d57612b9c6129da565b5b6000612bab84828501612b72565b91505092915050565b600073ffffffffffffffffffffffffffffffffffffffff82169050919050565b6000612bdf82612bb4565b9050919050565b612bef81612bd4565b82525050565b6000602082019050612c0a6000830184612be6565b92915050565b612c1981612bd4565b8114612c2457600080fd5b50565b600081359050612c3681612c10565b92915050565b60008060408385031215612c5357612c526129da565b5b6000612c6185828601612c27565b9250506020612c7285828601612b72565b9150509250929050565b612c8581612b51565b82525050565b6000602082019050612ca06000830184612c7c565b92915050565b600080600060608486031215612cbf57612cbe6129da565b5b6000612ccd86828701612c27565b9350506020612cde86828701612c27565b9250506040612cef86828701612b72565b9150509250925092565b600060208284031215612d0f57612d0e6129da565b5b6000612d1d84828501612c27565b91505092915050565b60008060408385031215612d3d57612d3c6129da565b5b6000612d4b85828601612b72565b9250506020612d5c85828601612b72565b9150509250929050565b600081519050919050565b600082825260208201905092915050565b6000819050602082019050919050565b612d9b81612b51565b82525050565b6000612dad8383612d92565b60208301905092915050565b6000602082019050919050565b6000612dd182612d66565b612ddb8185612d71565b9350612de683612d82565b8060005b83811015612e17578151612dfe8882612da1565b9750612e0983612db9565b925050600181019050612dea565b5085935050505092915050565b60006020820190508181036000830152612e3e8184612dc6565b905092915050565b612e4f81612a69565b8114612e5a57600080fd5b50565b600081359050612e6c81612e46565b92915050565b60008060408385031215612e8957612e886129da565b5b6000612e9785828601612c27565b9250506020612ea885828601612e5d565b9150509250929050565b612ebb81612bd4565b82525050565b612eca81612a69565b82525050565b608082016000820151612ee66000850182612eb2565b506020820151612ef96020850182612d92565b506040820151612f0c6040850182612d92565b506060820151612f1f6060850182612ec1565b50505050565b6000608082019050612f3a6000830184612ed0565b92915050565b6000608082019050612f556000830187612be6565b612f626020830186612c7c565b612f6f6040830185612c7c565b612f7c6060830184612a75565b95945050505050565b600080fd5b600080fd5b7f4e487b7100000000000000000000000000000000000000000000000000000000600052604160045260246000fd5b612fc782612ae5565b810181811067ffffffffffffffff82111715612fe657612fe5612f8f565b5b80604052505050565b6000612ff96129d0565b90506130058282612fbe565b919050565b600067ffffffffffffffff82111561302557613024612f8f565b5b61302e82612ae5565b9050602081019050919050565b82818337600083830152505050565b600061305d6130588461300a565b612fef565b90508281526020810184848401111561307957613078612f8a565b5b61308484828561303b565b509392505050565b600082601f8301126130a1576130a0612f85565b5b81356130b184826020860161304a565b91505092915050565b600080600080608085870312156130d4576130d36129da565b5b60006130e287828801612c27565b94505060206130f387828801612c27565b935050604061310487828801612b72565b925050606085013567ffffffffffffffff811115613125576131246129df565b5b6131318782880161308c565b91505092959194509250565b6000819050919050565b600061316261315d61315884612bb4565b61313d565b612bb4565b9050919050565b600061317482613147565b9050919050565b600061318682613169565b9050919050565b6131968161317b565b82525050565b60006020820190506131b1600083018461318d565b92915050565b600080604083850312156131ce576131cd6129da565b5b60006131dc85828601612c27565b92505060206131ed85828601612c27565b9150509250929050565b7f4e487b7100000000000000000000000000000000000000000000000000000000600052602260045260246000fd5b6000600282049050600182168061323e57607f821691505b602082108103613251576132506131f7565b5b50919050565b7f486f7573657320616c726561647920636c61696d656400000000000000000000600082015250565b600061328d601683612aaa565b915061329882613257565b602082019050919050565b600060208201905081810360008301526132bc81613280565b9050919050565b7f4e487b7100000000000000000000000000000000000000000000000000000000600052601160045260246000fd5b60006132fd82612b51565b91507fffffffffffffffffffffffffffffffffffffffffffffffffffffffffffffffff820361332f5761332e6132c3565b5b600182019050919050565b600060608201905061334f6000830186612be6565b61335c6020830185612c7c565b6133696040830184612be6565b949350505050565b7f4e487b7100000000000000000000000000000000000000000000000000000000600052601260045260246000fd5b60006133ab82612b51565b91506133b683612b51565b9250826133c6576133c5613371565b5b828204905092915050565b7f4e6f7420746865206f776e657200000000000000000000000000000000000000600082015250565b6000613407600d83612aaa565b9150613412826133d1565b602082019050919050565b60006020820190508181036000830152613436816133fa565b9050919050565b7f416c7265616479206c6973746564000000000000000000000000000000000000600082015250565b6000613473600e83612aaa565b915061347e8261343d565b602082019050919050565b600060208201905081810360008301526134a281613466565b9050919050565b60006060820190506134be6000830186612c7c565b6134cb6020830185612c7c565b6134d86040830184612be6565b949350505050565b60006134eb82612b51565b91506134f683612b51565b925082820390508181111561350e5761350d6132c3565b5b92915050565b7f4e487b7100000000000000000000000000000000000000000000000000000000600052603260045260246000fd5b60008151905061355281612b5b565b92915050565b60006020828403121561356e5761356d6129da565b5b600061357c84828501613543565b91505092915050565b7f486f757365206e6f7420666f722073616c650000000000000000000000000000600082015250565b60006135bb601283612aaa565b91506135c682613585565b602082019050919050565b600060208201905081810360008301526135ea816135ae565b9050919050565b7f43616e206e6f7420627579206f776e656420686f757365000000000000000000600082015250565b6000613627601783612aaa565b9150613632826135f1565b602082019050919050565b600060208201905081810360008301526136568161361a565b9050919050565b7f4e6f7420656e6f75676820746f6b656e73000000000000000000000000000000600082015250565b6000613693601183612aaa565b915061369e8261365d565b602082019050919050565b600060208201905081810360008301526136c281613686565b9050919050565b60006136d482612b51565b91506136df83612b51565b92508282026136ed81612b51565b91508282048414831517613704576137036132c3565b5b5092915050565b60006060820190506137206000830186612be6565b61372d6020830185612be6565b61373a6040830184612c7c565b949350505050565b60008151905061375181612e46565b92915050565b60006020828403121561376d5761376c6129da565b5b600061377b84828501613742565b91505092915050565b600081905092915050565b600061379a82612a9f565b6137a48185613784565b93506137b4818560208601612abb565b80840191505092915050565b60006137cc828561378f565b91506137d8828461378f565b91508190509392505050565b7f4574686572207265717569726564000000000000000000000000000000000000600082015250565b600061381a600e83612aaa565b9150613825826137e4565b602082019050919050565b600060208201905081810360008301526138498161380d565b9050919050565b60006040820190506138656000830185612be6565b6138726020830184612c7c565b9392505050565b600081519050919050565b600082825260208201905092915050565b60006138a082613879565b6138aa8185613884565b93506138ba818560208601612abb565b6138c381612ae5565b840191505092915050565b60006080820190506138e36000830187612be6565b6138f06020830186612be6565b6138fd6040830185612c7c565b818103606083015261390f8184613895565b905095945050505050565b60008151905061392981612a10565b92915050565b600060208284031215613945576139446129da565b5b60006139538482850161391a565b9150509291505056fea26469706673582212203e099c37cbaef5c8f8e5f0bc8a2b6ed19be2d07900552234824e0116cd060f1864736f6c6343000814003360806040523480156200001157600080fd5b5060405162001b0638038062001b068339818101604052810190620000379190620004ff565b818181600390816200004a9190620007cf565b5080600490816200005c9190620007cf565b5050506200009e3362000074620000a660201b60201c565b600a62000082919062000a46565b620f424062000092919062000a97565b620000af60201b60201c565b505062000bea565b60006012905090565b600073ffffffffffffffffffffffffffffffffffffffff168273ffffffffffffffffffffffffffffffffffffffff1603620001245760006040517fec442f050000000000000000000000000000000000000000000000000000000081526004016200011b919062000b27565b60405180910390fd5b62000138600083836200013c60201b60201c565b5050565b600073ffffffffffffffffffffffffffffffffffffffff168373ffffffffffffffffffffffffffffffffffffffff16036200019257806002600082825462000185919062000b44565b9250508190555062000268565b60008060008573ffffffffffffffffffffffffffffffffffffffff1673ffffffffffffffffffffffffffffffffffffffff1681526020019081526020016000205490508181101562000221578381836040517fe450d38c000000000000000000000000000000000000000000000000000000008152600401620002189392919062000b90565b60405180910390fd5b8181036000808673ffffffffffffffffffffffffffffffffffffffff1673ffffffffffffffffffffffffffffffffffffffff16815260200190815260200160002081905550505b600073ffffffffffffffffffffffffffffffffffffffff168273ffffffffffffffffffffffffffffffffffffffff1603620002b3578060026000828254039250508190555062000300565b806000808473ffffffffffffffffffffffffffffffffffffffff1673ffffffffffffffffffffffffffffffffffffffff168152602001908152602001600020600082825401925050819055505b8173ffffffffffffffffffffffffffffffffffffffff168373ffffffffffffffffffffffffffffffffffffffff167fddf252ad1be2c89b69c2b068fc378daa952ba7f163c4a11628f55a4df523b3ef836040516200035f919062000bcd565b60405180910390a3505050565b6000604051905090565b600080fd5b600080fd5b600080fd5b600080fd5b6000601f19601f8301169050919050565b7f4e487b7100000000000000000000000000000000000000000000000000000000600052604160045260246000fd5b620003d5826200038a565b810181811067ffffffffffffffff82111715620003f757620003f66200039b565b5b80604052505050565b60006200040c6200036c565b90506200041a8282620003ca565b919050565b600067ffffffffffffffff8211156200043d576200043c6200039b565b5b62000448826200038a565b9050602081019050919050565b60005b838110156200047557808201518184015260208101905062000458565b60008484015250505050565b60006200049862000492846200041f565b62000400565b905082815260208101848484011115620004b757620004b662000385565b5b620004c484828562000455565b509392505050565b600082601f830112620004e457620004e362000380565b5b8151620004f684826020860162000481565b91505092915050565b6000806040838503121562000519576200051862000376565b5b600083015167ffffffffffffffff8111156200053a57620005396200037b565b5b6200054885828601620004cc565b925050602083015167ffffffffffffffff8111156200056c576200056b6200037b565b5b6200057a85828601620004cc565b9150509250929050565b600081519050919050565b7f4e487b7100000000000000000000000000000000000000000000000000000000600052602260045260246000fd5b60006002820490506001821680620005d757607f821691505b602082108103620005ed57620005ec6200058f565b5b50919050565b60008190508160005260206000209050919050565b60006020601f8301049050919050565b600082821b905092915050565b600060088302620006577fffffffffffffffffffffffffffffffffffffffffffffffffffffffffffffffff8262000618565b62000663868362000618565b95508019841693508086168417925050509392505050565b6000819050919050565b6000819050919050565b6000620006b0620006aa620006a4846200067b565b62000685565b6200067b565b9050919050565b6000819050919050565b620006cc836200068f565b620006e4620006db82620006b7565b84845462000625565b825550505050565b600090565b620006fb620006ec565b62000708818484620006c1565b505050565b5b81811015620007305762000724600082620006f1565b6001810190506200070e565b5050565b601f8211156200077f576200074981620005f3565b620007548462000608565b8101602085101562000764578190505b6200077c620007738562000608565b8301826200070d565b50505b505050565b600082821c905092915050565b6000620007a46000198460080262000784565b1980831691505092915050565b6000620007bf838362000791565b9150826002028217905092915050565b620007da8262000584565b67ffffffffffffffff811115620007f657620007f56200039b565b5b620008028254620005be565b6200080f82828562000734565b600060209050601f83116001811462000847576000841562000832578287015190505b6200083e8582620007b1565b865550620008ae565b601f1984166200085786620005f3565b60005b8281101562000881578489015182556001820191506020850194506020810190506200085a565b86831015620008a157848901516200089d601f89168262000791565b8355505b6001600288020188555050505b505050505050565b7f4e487b7100000000000000000000000000000000000000000000000000000000600052601160045260246000fd5b60008160011c9050919050565b6000808291508390505b600185111562000944578086048111156200091c576200091b620008b6565b5b60018516156200092c5780820291505b80810290506200093c85620008e5565b9450620008fc565b94509492505050565b6000826200095f576001905062000a32565b816200096f576000905062000a32565b81600181146200098857600281146200099357620009c9565b600191505062000a32565b60ff841115620009a857620009a7620008b6565b5b8360020a915084821115620009c257620009c1620008b6565b5b5062000a32565b5060208310610133831016604e8410600b841016171562000a035782820a905083811115620009fd57620009fc620008b6565b5b62000a32565b62000a128484846001620008f2565b9250905081840481111562000a2c5762000a2b620008b6565b5b81810290505b9392505050565b600060ff82169050919050565b600062000a53826200067b565b915062000a608362000a39565b925062000a8f7fffffffffffffffffffffffffffffffffffffffffffffffffffffffffffffffff84846200094d565b905092915050565b600062000aa4826200067b565b915062000ab1836200067b565b925082820262000ac1816200067b565b9150828204841483151762000adb5762000ada620008b6565b5b5092915050565b600073ffffffffffffffffffffffffffffffffffffffff82169050919050565b600062000b0f8262000ae2565b9050919050565b62000b218162000b02565b82525050565b600060208201905062000b3e600083018462000b16565b92915050565b600062000b51826200067b565b915062000b5e836200067b565b925082820190508082111562000b795762000b78620008b6565b5b92915050565b62000b8a816200067b565b82525050565b600060608201905062000ba7600083018662000b16565b62000bb6602083018562000b7f565b62000bc5604083018462000b7f565b949350505050565b600060208201905062000be4600083018462000b7f565b92915050565b610f0c8062000bfa6000396000f3fe608060405234801561001057600080fd5b506004361061009e5760003560e01c806340c10f191161006657806340c10f191461015d57806370a082311461017957806395d89b41146101a9578063a9059cbb146101c7578063dd62ed3e146101f75761009e565b806306fdde03146100a3578063095ea7b3146100c157806318160ddd146100f157806323b872dd1461010f578063313ce5671461013f575b600080fd5b6100ab610227565b6040516100b89190610b60565b60405180910390f35b6100db60048036038101906100d69190610c1b565b6102b9565b6040516100e89190610c76565b60405180910390f35b6100f96102dc565b6040516101069190610ca0565b60405180910390f35b61012960048036038101906101249190610cbb565b6102e6565b6040516101369190610c76565b60405180910390f35b610147610315565b6040516101549190610d2a565b60405180910390f35b61017760048036038101906101729190610c1b565b61031e565b005b610193600480360381019061018e9190610d45565b61032c565b6040516101a09190610ca0565b60405180910390f35b6101b1610374565b6040516101be9190610b60565b60405180910390f35b6101e160048036038101906101dc9190610c1b565b610406565b6040516101ee9190610c76565b60405180910390f35b610211600480360381019061020c9190610d72565b610429565b60405161021e9190610ca0565b60405180910390f35b60606003805461023690610de1565b80601f016020809104026020016040519081016040528092919081815260200182805461026290610de1565b80156102af5780601f10610284576101008083540402835291602001916102af565b820191906000526020600020905b81548152906001019060200180831161029257829003601f168201915b5050505050905090565b6000806102c46104b0565b90506102d18185856104b8565b600191505092915050565b6000600254905090565b6000806102f16104b0565b90506102fe8582856104ca565b61030985858561055e565b60019150509392505050565b60006012905090565b6103288282610652565b5050565b60008060008373ffffffffffffffffffffffffffffffffffffffff1673ffffffffffffffffffffffffffffffffffffffff168152602001908152602001600020549050919050565b60606004805461038390610de1565b80601f01602080910402602001604051908101604052809291908181526020018280546103af90610de1565b80156103fc5780601f106103d1576101008083540402835291602001916103fc565b820191906000526020600020905b8154815290600101906020018083116103df57829003601f168201915b5050505050905090565b6000806104116104b0565b905061041e81858561055e565b600191505092915050565b6000600160008473ffffffffffffffffffffffffffffffffffffffff1673ffffffffffffffffffffffffffffffffffffffff16815260200190815260200160002060008373ffffffffffffffffffffffffffffffffffffffff1673ffffffffffffffffffffffffffffffffffffffff16815260200190815260200160002054905092915050565b600033905090565b6104c583838360016106d4565b505050565b60006104d68484610429565b90507fffffffffffffffffffffffffffffffffffffffffffffffffffffffffffffffff81146105585781811015610548578281836040517ffb8f41b200000000000000000000000000000000000000000000000000000000815260040161053f93929190610e21565b60405180910390fd5b610557848484840360006106d4565b5b50505050565b600073ffffffffffffffffffffffffffffffffffffffff168373ffffffffffffffffffffffffffffffffffffffff16036105d05760006040517f96c6fd1e0000000000000000000000000000000000000000000000000000000081526004016105c79190610e58565b60405180910390fd5b600073ffffffffffffffffffffffffffffffffffffffff168273ffffffffffffffffffffffffffffffffffffffff16036106425760006040517fec442f050000000000000000000000000000000000000000000000000000000081526004016106399190610e58565b60405180910390fd5b61064d8383836108ab565b505050565b600073ffffffffffffffffffffffffffffffffffffffff168273ffffffffffffffffffffffffffffffffffffffff16036106c45760006040517fec442f050000000000000000000000000000000000000000000000000000000081526004016106bb9190610e58565b60405180910390fd5b6106d0600083836108ab565b5050565b600073ffffffffffffffffffffffffffffffffffffffff168473ffffffffffffffffffffffffffffffffffffffff16036107465760006040517fe602df0500000000000000000000000000000000000000000000000000000000815260040161073d9190610e58565b60405180910390fd5b600073ffffffffffffffffffffffffffffffffffffffff168373ffffffffffffffffffffffffffffffffffffffff16036107b85760006040517f94280d620000000000000000000000000000000000000000000000000000000081526004016107af9190610e58565b60405180910390fd5b81600160008673ffffffffffffffffffffffffffffffffffffffff1673ffffffffffffffffffffffffffffffffffffffff16815260200190815260200160002060008573ffffffffffffffffffffffffffffffffffffffff1673ffffffffffffffffffffffffffffffffffffffff1681526020019081526020016000208190555080156108a5578273ffffffffffffffffffffffffffffffffffffffff168473ffffffffffffffffffffffffffffffffffffffff167f8c5be1e5ebec7d5bd14f71427d1e84f3dd0314c0f7b2291e5b200ac8c7c3b9258460405161089c9190610ca0565b60405180910390a35b50505050565b600073ffffffffffffffffffffffffffffffffffffffff168373ffffffffffffffffffffffffffffffffffffffff16036108fd5780600260008282546108f19190610ea2565b925050819055506109d0565b60008060008573ffffffffffffffffffffffffffffffffffffffff1673ffffffffffffffffffffffffffffffffffffffff16815260200190815260200160002054905081811015610989578381836040517fe450d38c00000000000000000000000000000000000000000000000000000000815260040161098093929190610e21565b60405180910390fd5b8181036000808673ffffffffffffffffffffffffffffffffffffffff1673ffffffffffffffffffffffffffffffffffffffff16815260200190815260200160002081905550505b600073ffffffffffffffffffffffffffffffffffffffff168273ffffffffffffffffffffffffffffffffffffffff1603610a195780600260008282540392505081905550610a66565b806000808473ffffffffffffffffffffffffffffffffffffffff1673ffffffffffffffffffffffffffffffffffffffff168152602001908152602001600020600082825401925050819055505b8173ffffffffffffffffffffffffffffffffffffffff168373ffffffffffffffffffffffffffffffffffffffff167fddf252ad1be2c89b69c2b068fc378daa952ba7f163c4a11628f55a4df523b3ef83604051610ac39190610ca0565b60405180910390a3505050565b600081519050919050565b600082825260208201905092915050565b60005b83811015610b0a578082015181840152602081019050610aef565b60008484015250505050565b6000601f19601f8301169050919050565b6000610b3282610ad0565b610b3c8185610adb565b9350610b4c818560208601610aec565b610b5581610b16565b840191505092915050565b60006020820190508181036000830152610b7a8184610b27565b905092915050565b600080fd5b600073ffffffffffffffffffffffffffffffffffffffff82169050919050565b6000610bb282610b87565b9050919050565b610bc281610ba7565b8114610bcd57600080fd5b50565b600081359050610bdf81610bb9565b92915050565b6000819050919050565b610bf881610be5565b8114610c0357600080fd5b50565b600081359050610c1581610bef565b92915050565b60008060408385031215610c3257610c31610b82565b5b6000610c4085828601610bd0565b9250506020610c5185828601610c06565b9150509250929050565b60008115159050919050565b610c7081610c5b565b82525050565b6000602082019050610c8b6000830184610c67565b92915050565b610c9a81610be5565b82525050565b6000602082019050610cb56000830184610c91565b92915050565b600080600060608486031215610cd457610cd3610b82565b5b6000610ce286828701610bd0565b9350506020610cf386828701610bd0565b9250506040610d0486828701610c06565b9150509250925092565b600060ff82169050919050565b610d2481610d0e565b82525050565b6000602082019050610d3f6000830184610d1b565b92915050565b600060208284031215610d5b57610d5a610b82565b5b6000610d6984828501610bd0565b91505092915050565b60008060408385031215610d8957610d88610b82565b5b6000610d9785828601610bd0565b9250506020610da885828601610bd0565b9150509250929050565b7f4e487b7100000000000000000000000000000000000000000000000000000000600052602260045260246000fd5b60006002820490506001821680610df957607f821691505b602082108103610e0c57610e0b610db2565b5b50919050565b610e1b81610ba7565b82525050565b6000606082019050610e366000830186610e12565b610e436020830185610c91565b610e506040830184610c91565b949350505050565b6000602082019050610e6d6000830184610e12565b92915050565b7f4e487b7100000000000000000000000000000000000000000000000000000000600052601160045260246000fd5b6000610ead82610be5565b9150610eb883610be5565b9250828201905080821115610ed057610ecf610e73565b5b9291505056fea26469706673582212203e93db91d6a3e18a5d6feac2edf6db8de4d5fae024d4a436e0b91051ac577d1f64736f6c63430008140033",
  "linkReferences": {},
  "deployedLinkReferences": {}
}