{
  "_format": "hh-sol-artifact-1",
  "contractName": "BuyMyRoom",
  "sourceName": "contracts/BuyMyRoom.sol",
  "abi": [
    {
      "inputs": [],
      "stateMutability": "nonpayable",
      "type": "constructor"
    },
    {
      "inputs": [
        {
          "internalType": "address",
          "name": "sender",
          "type": "address"
        },
        {
          "internalType": "uint256",
          "name": "tokenId",
          "type": "uint256"
        },
        {
          "internalType": "address",
          "name": "owner",
          "type": "address"
        }
      ],
      "name": "ERC721IncorrectOwner",
      "type": "error"
    },
    {
      "inputs": [
        {
          "internalType": "address",
          "name": "operator",
          "type": "address"
        },
        {
          "internalType": "uint256",
          "name": "tokenId",
          "type": "uint256"
        }
      ],
      "name": "ERC721InsufficientApproval",
      "type": "error"
    },
    {
      "inputs": [
        {
          "internalType": "address",
          "name": "approver",
          "type": "address"
        }
      ],
      "name": "ERC721InvalidApprover",
      "type": "error"
    },
    {
      "inputs": [
        {
          "internalType": "address",
          "name": "operator",
          "type": "address"
        }
      ],
      "name": "ERC721InvalidOperator",
      "type": "error"
    },
    {
      "inputs": [
        {
          "internalType": "address",
          "name": "owner",
          "type": "address"
        }
      ],
      "name": "ERC721InvalidOwner",
      "type": "error"
    },
    {
      "inputs": [
        {
          "internalType": "address",
          "name": "receiver",
          "type": "address"
        }
      ],
      "name": "ERC721InvalidReceiver",
      "type": "error"
    },
    {
      "inputs": [
        {
          "internalType": "address",
          "name": "sender",
          "type": "address"
        }
      ],
      "name": "ERC721InvalidSender",
      "type": "error"
    },
    {
      "inputs": [
        {
          "internalType": "uint256",
          "name": "tokenId",
          "type": "uint256"
        }
      ],
      "name": "ERC721NonexistentToken",
      "type": "error"
    },
    {
      "anonymous": false,
      "inputs": [
        {
          "indexed": true,
          "internalType": "address",
          "name": "owner",
          "type": "address"
        },
        {
          "indexed": true,
          "internalType": "address",
          "name": "approved",
          "type": "address"
        },
        {
          "indexed": true,
          "internalType": "uint256",
          "name": "tokenId",
          "type": "uint256"
        }
      ],
      "name": "Approval",
      "type": "event"
    },
    {
      "anonymous": false,
      "inputs": [
        {
          "indexed": true,
          "internalType": "address",
          "name": "owner",
          "type": "address"
        },
        {
          "indexed": true,
          "internalType": "address",
          "name": "operator",
          "type": "address"
        },
        {
          "indexed": false,
          "internalType": "bool",
          "name": "approved",
          "type": "bool"
        }
      ],
      "name": "ApprovalForAll",
      "type": "event"
    },
    {
      "anonymous": false,
      "inputs": [
        {
          "indexed": false,
          "internalType": "uint256",
          "name": "tokenId",
          "type": "uint256"
        },
        {
          "indexed": false,
          "internalType": "uint256",
          "name": "price",
          "type": "uint256"
        },
        {
          "indexed": false,
          "internalType": "address",
          "name": "owner",
          "type": "address"
        }
      ],
      "name": "HouseListed",
      "type": "event"
    },
    {
      "anonymous": false,
      "inputs": [
        {
          "indexed": false,
          "internalType": "uint256",
          "name": "tokenId",
          "type": "uint256"
        },
        {
          "indexed": false,
          "internalType": "uint256",
          "name": "price",
          "type": "uint256"
        },
        {
          "indexed": false,
          "internalType": "address",
          "name": "newOwner",
          "type": "address"
        }
      ],
      "name": "HouseSold",
      "type": "event"
    },
    {
      "anonymous": false,
      "inputs": [
        {
          "indexed": true,
          "internalType": "address",
          "name": "from",
          "type": "address"
        },
        {
          "indexed": true,
          "internalType": "address",
          "name": "to",
          "type": "address"
        },
        {
          "indexed": true,
          "internalType": "uint256",
          "name": "tokenId",
          "type": "uint256"
        }
      ],
      "name": "Transfer",
      "type": "event"
    },
    {
      "inputs": [],
      "name": "airdropHouses",
      "outputs": [],
      "stateMutability": "nonpayable",
      "type": "function"
    },
    {
      "inputs": [
        {
          "internalType": "address",
          "name": "to",
          "type": "address"
        },
        {
          "internalType": "uint256",
          "name": "tokenId",
          "type": "uint256"
        }
      ],
      "name": "approve",
      "outputs": [],
      "stateMutability": "nonpayable",
      "type": "function"
    },
    {
      "inputs": [
        {
          "internalType": "address",
          "name": "owner",
          "type": "address"
        }
      ],
      "name": "balanceOf",
      "outputs": [
        {
          "internalType": "uint256",
          "name": "",
          "type": "uint256"
        }
      ],
      "stateMutability": "view",
      "type": "function"
    },
    {
      "inputs": [
        {
          "internalType": "uint256",
          "name": "tokenId",
          "type": "uint256"
        }
      ],
      "name": "buyHouseWithTokens",
      "outputs": [],
      "stateMutability": "nonpayable",
      "type": "function"
    },
    {
      "inputs": [],
      "name": "buyTokens",
      "outputs": [],
      "stateMutability": "payable",
      "type": "function"
    },
    {
      "inputs": [
        {
          "internalType": "uint256",
          "name": "tokenId",
          "type": "uint256"
        }
      ],
      "name": "getApproved",
      "outputs": [
        {
          "internalType": "address",
          "name": "",
          "type": "address"
        }
      ],
      "stateMutability": "view",
      "type": "function"
    },
    {
      "inputs": [
        {
          "internalType": "uint256",
          "name": "tokenId",
          "type": "uint256"
        }
      ],
      "name": "getHouseInfo",
      "outputs": [
        {
          "components": [
            {
              "internalType": "address",
              "name": "owner",
              "type": "address"
            },
            {
              "internalType": "uint256",
              "name": "listedTimestamp",
              "type": "uint256"
            },
            {
              "internalType": "uint256",
              "name": "price",
              "type": "uint256"
            },
            {
              "internalType": "bool",
              "name": "isForSale",
              "type": "bool"
            }
          ],
          "internalType": "struct BuyMyRoom.House",
          "name": "",
          "type": "tuple"
        }
      ],
      "stateMutability": "view",
      "type": "function"
    },
    {
      "inputs": [
        {
          "internalType": "uint256",
          "name": "tokenId",
          "type": "uint256"
        }
      ],
      "name": "getHouseOwner",
      "outputs": [
        {
          "internalType": "address",
          "name": "",
          "type": "address"
        }
      ],
      "stateMutability": "view",
      "type": "function"
    },
    {
      "inputs": [],
      "name": "getHousesForSale",
      "outputs": [
        {
          "internalType": "uint256[]",
          "name": "",
          "type": "uint256[]"
        }
      ],
      "stateMutability": "view",
      "type": "function"
    },
    {
      "inputs": [
        {
          "internalType": "address",
          "name": "user",
          "type": "address"
        }
      ],
      "name": "getUserHouses",
      "outputs": [
        {
          "internalType": "uint256[]",
          "name": "",
          "type": "uint256[]"
        }
      ],
      "stateMutability": "view",
      "type": "function"
    },
    {
      "inputs": [
        {
          "internalType": "address",
          "name": "",
          "type": "address"
        }
      ],
      "name": "hasClaimedHouses",
      "outputs": [
        {
          "internalType": "bool",
          "name": "",
          "type": "bool"
        }
      ],
      "stateMutability": "view",
      "type": "function"
    },
    {
      "inputs": [
        {
          "internalType": "uint256",
          "name": "",
          "type": "uint256"
        }
      ],
      "name": "houses",
      "outputs": [
        {
          "internalType": "address",
          "name": "owner",
          "type": "address"
        },
        {
          "internalType": "uint256",
          "name": "listedTimestamp",
          "type": "uint256"
        },
        {
          "internalType": "uint256",
          "name": "price",
          "type": "uint256"
        },
        {
          "internalType": "bool",
          "name": "isForSale",
          "type": "bool"
        }
      ],
      "stateMutability": "view",
      "type": "function"
    },
    {
      "inputs": [
        {
          "internalType": "address",
          "name": "owner",
          "type": "address"
        },
        {
          "internalType": "address",
          "name": "operator",
          "type": "address"
        }
      ],
      "name": "isApprovedForAll",
      "outputs": [
        {
          "internalType": "bool",
          "name": "",
          "type": "bool"
        }
      ],
      "stateMutability": "view",
      "type": "function"
    },
    {
      "inputs": [
        {
          "internalType": "uint256",
          "name": "tokenId",
          "type": "uint256"
        },
        {
          "internalType": "uint256",
          "name": "price",
          "type": "uint256"
        }
      ],
      "name": "listHouse",
      "outputs": [],
      "stateMutability": "nonpayable",
      "type": "function"
    },
    {
      "inputs": [],
      "name": "listingFeeRate",
      "outputs": [
        {
          "internalType": "uint256",
          "name": "",
          "type": "uint256"
        }
      ],
      "stateMutability": "view",
      "type": "function"
    },
    {
      "inputs": [],
      "name": "manager",
      "outputs": [
        {
          "internalType": "address",
          "name": "",
          "type": "address"
        }
      ],
      "stateMutability": "view",
      "type": "function"
    },
    {
      "inputs": [],
      "name": "myToken",
      "outputs": [
        {
          "internalType": "contract MyERC20",
          "name": "",
          "type": "address"
        }
      ],
      "stateMutability": "view",
      "type": "function"
    },
    {
      "inputs": [],
      "name": "name",
      "outputs": [
        {
          "internalType": "string",
          "name": "",
          "type": "string"
        }
      ],
      "stateMutability": "view",
      "type": "function"
    },
    {
      "inputs": [],
      "name": "nextTokenId",
      "outputs": [
        {
          "internalType": "uint256",
          "name": "",
          "type": "uint256"
        }
      ],
      "stateMutability": "view",
      "type": "function"
    },
    {
      "inputs": [
        {
          "internalType": "uint256",
          "name": "tokenId",
          "type": "uint256"
        }
      ],
      "name": "ownerOf",
      "outputs": [
        {
          "internalType": "address",
          "name": "",
          "type": "address"
        }
      ],
      "stateMutability": "view",
      "type": "function"
    },
    {
      "inputs": [
        {
          "internalType": "address",
          "name": "from",
          "type": "address"
        },
        {
          "internalType": "address",
          "name": "to",
          "type": "address"
        },
        {
          "internalType": "uint256",
          "name": "tokenId",
          "type": "uint256"
        }
      ],
      "name": "safeTransferFrom",
      "outputs": [],
      "stateMutability": "nonpayable",
      "type": "function"
    },
    {
      "inputs": [
        {
          "internalType": "address",
          "name": "from",
          "type": "address"
        },
        {
          "internalType": "address",
          "name": "to",
          "type": "address"
        },
        {
          "internalType": "uint256",
          "name": "tokenId",
          "type": "uint256"
        },
        {
          "internalType": "bytes",
          "name": "data",
          "type": "bytes"
        }
      ],
      "name": "safeTransferFrom",
      "outputs": [],
      "stateMutability": "nonpayable",
      "type": "function"
    },
    {
      "inputs": [
        {
          "internalType": "address",
          "name": "operator",
          "type": "address"
        },
        {
          "internalType": "bool",
          "name": "approved",
          "type": "bool"
        }
      ],
      "name": "setApprovalForAll",
      "outputs": [],
      "stateMutability": "nonpayable",
      "type": "function"
    },
    {
      "inputs": [
        {
          "internalType": "bytes4",
          "name": "interfaceId",
          "type": "bytes4"
        }
      ],
      "name": "supportsInterface",
      "outputs": [
        {
          "internalType": "bool",
          "name": "",
          "type": "bool"
        }
      ],
      "stateMutability": "view",
      "type": "function"
    },
    {
      "inputs": [],
      "name": "symbol",
      "outputs": [
        {
          "internalType": "string",
          "name": "",
          "type": "string"
        }
      ],
      "stateMutability": "view",
      "type": "function"
    },
    {
      "inputs": [
        {
          "internalType": "uint256",
          "name": "tokenId",
          "type": "uint256"
        }
      ],
      "name": "tokenURI",
      "outputs": [
        {
          "internalType": "string",
          "name": "",
          "type": "string"
        }
      ],
      "stateMutability": "view",
      "type": "function"
    },
    {
      "inputs": [
        {
          "internalType": "address",
          "name": "from",
          "type": "address"
        },
        {
          "internalType": "address",
          "name": "to",
          "type": "address"
        },
        {
          "internalType": "uint256",
          "name": "tokenId",
          "type": "uint256"
        }
      ],
      "name": "transferFrom",
      "outputs": [],
      "stateMutability": "nonpayable",
      "type": "function"
    }
  ],
  "bytecode": "0x608060405260016007553480156200001657600080fd5b506040518060400160405280600881526020017f486f7573654e46540000000000000000000000000000000000000000000000008152506040518060400160405280600481526020017f484e4654000000000000000000000000000000000000000000000000000000008152508160009081620000949190620003f7565b508060019081620000a69190620003f7565b50505033600860006101000a81548173ffffffffffffffffffffffffffffffffffffffff021916908373ffffffffffffffffffffffffffffffffffffffff160217905550600160068190555060405162000100906200016f565b6200010b906200058f565b604051809103906000f08015801562000128573d6000803e3d6000fd5b50600960006101000a81548173ffffffffffffffffffffffffffffffffffffffff021916908373ffffffffffffffffffffffffffffffffffffffff160217905550620005c6565b611b068062003daf83390190565b600081519050919050565b7f4e487b7100000000000000000000000000000000000000000000000000000000600052604160045260246000fd5b7f4e487b7100000000000000000000000000000000000000000000000000000000600052602260045260246000fd5b60006002820490506001821680620001ff57607f821691505b602082108103620002155762000214620001b7565b5b50919050565b60008190508160005260206000209050919050565b60006020601f8301049050919050565b600082821b905092915050565b6000600883026200027f7fffffffffffffffffffffffffffffffffffffffffffffffffffffffffffffffff8262000240565b6200028b868362000240565b95508019841693508086168417925050509392505050565b6000819050919050565b6000819050919050565b6000620002d8620002d2620002cc84620002a3565b620002ad565b620002a3565b9050919050565b6000819050919050565b620002f483620002b7565b6200030c6200030382620002df565b8484546200024d565b825550505050565b600090565b6200032362000314565b62000330818484620002e9565b505050565b5b8181101562000358576200034c60008262000319565b60018101905062000336565b5050565b601f821115620003a75762000371816200021b565b6200037c8462000230565b810160208510156200038c578190505b620003a46200039b8562000230565b83018262000335565b50505b505050565b600082821c905092915050565b6000620003cc60001984600802620003ac565b1980831691505092915050565b6000620003e78383620003b9565b9150826002028217905092915050565b62000402826200017d565b67ffffffffffffffff8111156200041e576200041d62000188565b5b6200042a8254620001e6565b620004378282856200035c565b600060209050601f8311600181146200046f57600084156200045a578287015190505b620004668582620003d9565b865550620004d6565b601f1984166200047f866200021b565b60005b82811015620004a95784890151825560018201915060208501945060208101905062000482565b86831015620004c95784890151620004c5601f891682620003b9565b8355505b6001600288020188555050505b505050505050565b600082825260208201905092915050565b7f5a4a55546f6b656e000000000000000000000000000000000000000000000000600082015250565b600062000527600883620004de565b91506200053482620004ef565b602082019050919050565b7f5a4a55546f6b656e53796d626f6c000000000000000000000000000000000000600082015250565b600062000577600e83620004de565b915062000584826200053f565b602082019050919050565b60006040820190508181036000830152620005aa8162000518565b90508181036020830152620005bf8162000568565b9050919050565b6137d980620005d66000396000f3fe60806040526004361061019c5760003560e01c806399b23178116100ec578063b88d4fde1161008a578063c87b56dd11610064578063c87b56dd146105ef578063d0febe4c1461062c578063e7e95ada14610636578063e985e9c5146106735761019c565b8063b88d4fde1461055e578063b8fcf93714610587578063c7dc6936146105b25761019c565b8063a22cb465116100c6578063a22cb4651461048f578063ad50f56d146104b8578063aeda852f146104f5578063b24b4586146105355761019c565b806399b23178146103fe5780639e407d20146104275780639e4ffa7f146104645761019c565b806323b872dd116101595780636352211e116101335780636352211e1461032e57806370a082311461036b57806375794a3c146103a857806395d89b41146103d35761019c565b806323b872dd146102b157806342842e0e146102da578063481c6a75146103035761019c565b806301ffc9a7146101a157806306fdde03146101de578063081812fc14610209578063095ea7b314610246578063099bc1e21461026f5780630dcda8b514610286575b600080fd5b3480156101ad57600080fd5b506101c860048036038101906101c39190612883565b6106b0565b6040516101d591906128cb565b60405180910390f35b3480156101ea57600080fd5b506101f3610792565b6040516102009190612976565b60405180910390f35b34801561021557600080fd5b50610230600480360381019061022b91906129ce565b610824565b60405161023d9190612a3c565b60405180910390f35b34801561025257600080fd5b5061026d60048036038101906102689190612a83565b610840565b005b34801561027b57600080fd5b50610284610856565b005b34801561029257600080fd5b5061029b610a4f565b6040516102a89190612ad2565b60405180910390f35b3480156102bd57600080fd5b506102d860048036038101906102d39190612aed565b610a55565b005b3480156102e657600080fd5b5061030160048036038101906102fc9190612aed565b610b57565b005b34801561030f57600080fd5b50610318610b77565b6040516103259190612a3c565b60405180910390f35b34801561033a57600080fd5b50610355600480360381019061035091906129ce565b610b9d565b6040516103629190612a3c565b60405180910390f35b34801561037757600080fd5b50610392600480360381019061038d9190612b40565b610baf565b60405161039f9190612ad2565b60405180910390f35b3480156103b457600080fd5b506103bd610c69565b6040516103ca9190612ad2565b60405180910390f35b3480156103df57600080fd5b506103e8610c6f565b6040516103f59190612976565b60405180910390f35b34801561040a57600080fd5b5061042560048036038101906104209190612b6d565b610d01565b005b34801561043357600080fd5b5061044e60048036038101906104499190612b40565b610e7f565b60405161045b9190612c6b565b60405180910390f35b34801561047057600080fd5b50610479610f87565b6040516104869190612c6b565b60405180910390f35b34801561049b57600080fd5b506104b660048036038101906104b19190612cb9565b6110c9565b005b3480156104c457600080fd5b506104df60048036038101906104da91906129ce565b6110df565b6040516104ec9190612d6c565b60405180910390f35b34801561050157600080fd5b5061051c600480360381019061051791906129ce565b611191565b60405161052c9493929190612d87565b60405180910390f35b34801561054157600080fd5b5061055c600480360381019061055791906129ce565b6111ee565b005b34801561056a57600080fd5b5061058560048036038101906105809190612f01565b611639565b005b34801561059357600080fd5b5061059c611656565b6040516105a99190612fe3565b60405180910390f35b3480156105be57600080fd5b506105d960048036038101906105d49190612b40565b61167c565b6040516105e691906128cb565b60405180910390f35b3480156105fb57600080fd5b50610616600480360381019061061191906129ce565b61169c565b6040516106239190612976565b60405180910390f35b610634611705565b005b34801561064257600080fd5b5061065d600480360381019061065891906129ce565b611855565b60405161066a9190612a3c565b60405180910390f35b34801561067f57600080fd5b5061069a60048036038101906106959190612ffe565b611895565b6040516106a791906128cb565b60405180910390f35b60007f80ac58cd000000000000000000000000000000000000000000000000000000007bffffffffffffffffffffffffffffffffffffffffffffffffffffffff1916827bffffffffffffffffffffffffffffffffffffffffffffffffffffffff1916148061077b57507f5b5e139f000000000000000000000000000000000000000000000000000000007bffffffffffffffffffffffffffffffffffffffffffffffffffffffff1916827bffffffffffffffffffffffffffffffffffffffffffffffffffffffff1916145b8061078b575061078a82611929565b5b9050919050565b6060600080546107a19061306d565b80601f01602080910402602001604051908101604052809291908181526020018280546107cd9061306d565b801561081a5780601f106107ef5761010080835404028352916020019161081a565b820191906000526020600020905b8154815290600101906020018083116107fd57829003601f168201915b5050505050905090565b600061082f82611993565b5061083982611a1b565b9050919050565b610852828261084d611a58565b611a60565b5050565b600a60003373ffffffffffffffffffffffffffffffffffffffff1673ffffffffffffffffffffffffffffffffffffffff16815260200190815260200160002060009054906101000a900460ff16156108e3576040517f08c379a00000000000000000000000000000000000000000000000000000000081526004016108da906130ea565b60405180910390fd5b60005b60038110156109f4576108fb33600654611a72565b60405180608001604052803373ffffffffffffffffffffffffffffffffffffffff1681526020014281526020016000815260200160001515815250600b6000600654815260200190815260200160002060008201518160000160006101000a81548173ffffffffffffffffffffffffffffffffffffffff021916908373ffffffffffffffffffffffffffffffffffffffff160217905550602082015181600101556040820151816002015560608201518160030160006101000a81548160ff021916908315150217905550905050600660008154809291906109dc90613139565b919050555080806109ec90613139565b9150506108e6565b506001600a60003373ffffffffffffffffffffffffffffffffffffffff1673ffffffffffffffffffffffffffffffffffffffff16815260200190815260200160002060006101000a81548160ff021916908315150217905550565b60075481565b600073ffffffffffffffffffffffffffffffffffffffff168273ffffffffffffffffffffffffffffffffffffffff1603610ac75760006040517f64a0ae92000000000000000000000000000000000000000000000000000000008152600401610abe9190612a3c565b60405180910390fd5b6000610adb8383610ad6611a58565b611b6b565b90508373ffffffffffffffffffffffffffffffffffffffff168173ffffffffffffffffffffffffffffffffffffffff1614610b51578382826040517f64283d7b000000000000000000000000000000000000000000000000000000008152600401610b4893929190613181565b60405180910390fd5b50505050565b610b7283838360405180602001604052806000815250611639565b505050565b600860009054906101000a900473ffffffffffffffffffffffffffffffffffffffff1681565b6000610ba882611993565b9050919050565b60008073ffffffffffffffffffffffffffffffffffffffff168273ffffffffffffffffffffffffffffffffffffffff1603610c225760006040517f89c62b64000000000000000000000000000000000000000000000000000000008152600401610c199190612a3c565b60405180910390fd5b600360008373ffffffffffffffffffffffffffffffffffffffff1673ffffffffffffffffffffffffffffffffffffffff168152602001908152602001600020549050919050565b60065481565b606060018054610c7e9061306d565b80601f0160208091040260200160405190810160405280929190818152602001828054610caa9061306d565b8015610cf75780601f10610ccc57610100808354040283529160200191610cf7565b820191906000526020600020905b815481529060010190602001808311610cda57829003601f168201915b5050505050905090565b3373ffffffffffffffffffffffffffffffffffffffff16610d2183610b9d565b73ffffffffffffffffffffffffffffffffffffffff1614610d77576040517f08c379a0000000000000000000000000000000000000000000000000000000008152600401610d6e90613204565b60405180910390fd5b600b600083815260200190815260200160002060030160009054906101000a900460ff1615610ddb576040517f08c379a0000000000000000000000000000000000000000000000000000000008152600401610dd290613270565b60405180910390fd5b80600b6000848152602001908152602001600020600201819055506001600b600084815260200190815260200160002060030160006101000a81548160ff02191690831515021790555042600b6000848152602001908152602001600020600101819055507f60b3e540896cf4a419e7b7274a1f1282223f5d92ca6f0152cf820fe457fb4843828233604051610e7393929190613290565b60405180910390a15050565b606060006001600654610e9291906132c7565b90506000610e9f84610baf565b905060008167ffffffffffffffff811115610ebd57610ebc612dd6565b5b604051908082528060200260200182016040528015610eeb5781602001602082028036833780820191505090505b509050600080600190505b848111610f7a578673ffffffffffffffffffffffffffffffffffffffff16610f1d82610b9d565b73ffffffffffffffffffffffffffffffffffffffff1603610f675780838381518110610f4c57610f4b6132fb565b5b6020026020010181815250508180610f6390613139565b9250505b8080610f7290613139565b915050610ef6565b5081945050505050919050565b606060006001600654610f9a91906132c7565b9050600080600190505b828111610ff657600b600082815260200190815260200160002060030160009054906101000a900460ff1615610fe3578180610fdf90613139565b9250505b8080610fee90613139565b915050610fa4565b5060008167ffffffffffffffff81111561101357611012612dd6565b5b6040519080825280602002602001820160405280156110415781602001602082028036833780820191505090505b509050600080600190505b8481116110be57600b600082815260200190815260200160002060030160009054906101000a900460ff16156110ab57808383815181106110905761108f6132fb565b5b60200260200101818152505081806110a790613139565b9250505b80806110b690613139565b91505061104c565b508194505050505090565b6110db6110d4611a58565b8383611d85565b5050565b6110e76127d7565b600b60008381526020019081526020016000206040518060800160405290816000820160009054906101000a900473ffffffffffffffffffffffffffffffffffffffff1673ffffffffffffffffffffffffffffffffffffffff1673ffffffffffffffffffffffffffffffffffffffff16815260200160018201548152602001600282015481526020016003820160009054906101000a900460ff1615151515815250509050919050565b600b6020528060005260406000206000915090508060000160009054906101000a900473ffffffffffffffffffffffffffffffffffffffff16908060010154908060020154908060030160009054906101000a900460ff16905084565b600b600082815260200190815260200160002060030160009054906101000a900460ff16611251576040517f08c379a000000000000000000000000000000000000000000000000000000000815260040161124890613376565b60405180910390fd5b3373ffffffffffffffffffffffffffffffffffffffff16600b600083815260200190815260200160002060000160009054906101000a900473ffffffffffffffffffffffffffffffffffffffff1673ffffffffffffffffffffffffffffffffffffffff16036112f5576040517f08c379a00000000000000000000000000000000000000000000000000000000081526004016112ec906133e2565b60405180910390fd5b600061130082610b9d565b90506000600b600084815260200190815260200160002060020154905080600960009054906101000a900473ffffffffffffffffffffffffffffffffffffffff1673ffffffffffffffffffffffffffffffffffffffff166370a08231336040518263ffffffff1660e01b81526004016113799190612a3c565b602060405180830381865afa158015611396573d6000803e3d6000fd5b505050506040513d601f19601f820116820180604052508101906113ba9190613417565b10156113fb576040517f08c379a00000000000000000000000000000000000000000000000000000000081526004016113f290613490565b60405180910390fd5b6000816064600754600b6000888152602001908152602001600020600101544261142591906132c7565b61142f91906134b0565b6114399190613521565b61144391906134b0565b90506000818361145391906132c7565b9050600960009054906101000a900473ffffffffffffffffffffffffffffffffffffffff1673ffffffffffffffffffffffffffffffffffffffff166323b872dd3386846040518463ffffffff1660e01b81526004016114b493929190613552565b6020604051808303816000875af11580156114d3573d6000803e3d6000fd5b505050506040513d601f19601f820116820180604052508101906114f7919061359e565b50600960009054906101000a900473ffffffffffffffffffffffffffffffffffffffff1673ffffffffffffffffffffffffffffffffffffffff166323b872dd33600860009054906101000a900473ffffffffffffffffffffffffffffffffffffffff16856040518463ffffffff1660e01b815260040161157993929190613552565b6020604051808303816000875af1158015611598573d6000803e3d6000fd5b505050506040513d601f19601f820116820180604052508101906115bc919061359e565b506000600b600087815260200190815260200160002060030160006101000a81548160ff0219169083151502179055506115f7843387611ef4565b7fb6e6b0aa920ed5fbb8dd058bbd321e9b2b8780062b0dd9bc84019b47706f73ab85843360405161162a93929190613290565b60405180910390a15050505050565b611644848484610a55565b61165084848484612061565b50505050565b600960009054906101000a900473ffffffffffffffffffffffffffffffffffffffff1681565b600a6020528060005260406000206000915054906101000a900460ff1681565b60606116a782611993565b5060006116b2612218565b905060008151116116d257604051806020016040528060008152506116fd565b806116dc8461222f565b6040516020016116ed929190613607565b6040516020818303038152906040525b915050919050565b60003411611748576040517f08c379a000000000000000000000000000000000000000000000000000000000815260040161173f90613677565b60405180910390fd5b60006103e83461175891906134b0565b9050600960009054906101000a900473ffffffffffffffffffffffffffffffffffffffff1673ffffffffffffffffffffffffffffffffffffffff166340c10f1933836040518363ffffffff1660e01b81526004016117b7929190613697565b600060405180830381600087803b1580156117d157600080fd5b505af11580156117e5573d6000803e3d6000fd5b50505050600860009054906101000a900473ffffffffffffffffffffffffffffffffffffffff1673ffffffffffffffffffffffffffffffffffffffff166108fc349081150290604051600060405180830381858888f19350505050158015611851573d6000803e3d6000fd5b5050565b6000600b600083815260200190815260200160002060000160009054906101000a900473ffffffffffffffffffffffffffffffffffffffff169050919050565b6000600560008473ffffffffffffffffffffffffffffffffffffffff1673ffffffffffffffffffffffffffffffffffffffff16815260200190815260200160002060008373ffffffffffffffffffffffffffffffffffffffff1673ffffffffffffffffffffffffffffffffffffffff16815260200190815260200160002060009054906101000a900460ff16905092915050565b60007f01ffc9a7000000000000000000000000000000000000000000000000000000007bffffffffffffffffffffffffffffffffffffffffffffffffffffffff1916827bffffffffffffffffffffffffffffffffffffffffffffffffffffffff1916149050919050565b60008061199f836122fd565b9050600073ffffffffffffffffffffffffffffffffffffffff168173ffffffffffffffffffffffffffffffffffffffff1603611a1257826040517f7e273289000000000000000000000000000000000000000000000000000000008152600401611a099190612ad2565b60405180910390fd5b80915050919050565b60006004600083815260200190815260200160002060009054906101000a900473ffffffffffffffffffffffffffffffffffffffff169050919050565b600033905090565b611a6d838383600161233a565b505050565b600073ffffffffffffffffffffffffffffffffffffffff168273ffffffffffffffffffffffffffffffffffffffff1603611ae45760006040517f64a0ae92000000000000000000000000000000000000000000000000000000008152600401611adb9190612a3c565b60405180910390fd5b6000611af283836000611b6b565b9050600073ffffffffffffffffffffffffffffffffffffffff168173ffffffffffffffffffffffffffffffffffffffff1614611b665760006040517f73c6ac6e000000000000000000000000000000000000000000000000000000008152600401611b5d9190612a3c565b60405180910390fd5b505050565b600080611b77846122fd565b9050600073ffffffffffffffffffffffffffffffffffffffff168373ffffffffffffffffffffffffffffffffffffffff1614611bb957611bb88184866124ff565b5b600073ffffffffffffffffffffffffffffffffffffffff168173ffffffffffffffffffffffffffffffffffffffff1614611c4a57611bfb60008560008061233a565b6001600360008373ffffffffffffffffffffffffffffffffffffffff1673ffffffffffffffffffffffffffffffffffffffff168152602001908152602001600020600082825403925050819055505b600073ffffffffffffffffffffffffffffffffffffffff168573ffffffffffffffffffffffffffffffffffffffff1614611ccd576001600360008773ffffffffffffffffffffffffffffffffffffffff1673ffffffffffffffffffffffffffffffffffffffff168152602001908152602001600020600082825401925050819055505b846002600086815260200190815260200160002060006101000a81548173ffffffffffffffffffffffffffffffffffffffff021916908373ffffffffffffffffffffffffffffffffffffffff160217905550838573ffffffffffffffffffffffffffffffffffffffff168273ffffffffffffffffffffffffffffffffffffffff167fddf252ad1be2c89b69c2b068fc378daa952ba7f163c4a11628f55a4df523b3ef60405160405180910390a4809150509392505050565b600073ffffffffffffffffffffffffffffffffffffffff168273ffffffffffffffffffffffffffffffffffffffff1603611df657816040517f5b08ba18000000000000000000000000000000000000000000000000000000008152600401611ded9190612a3c565b60405180910390fd5b80600560008573ffffffffffffffffffffffffffffffffffffffff1673ffffffffffffffffffffffffffffffffffffffff16815260200190815260200160002060008473ffffffffffffffffffffffffffffffffffffffff1673ffffffffffffffffffffffffffffffffffffffff16815260200190815260200160002060006101000a81548160ff0219169083151502179055508173ffffffffffffffffffffffffffffffffffffffff168373ffffffffffffffffffffffffffffffffffffffff167f17307eab39ab6107e8899845ad3d59bd9653f200f220920489ca2b5937696c3183604051611ee791906128cb565b60405180910390a3505050565b600073ffffffffffffffffffffffffffffffffffffffff168273ffffffffffffffffffffffffffffffffffffffff1603611f665760006040517f64a0ae92000000000000000000000000000000000000000000000000000000008152600401611f5d9190612a3c565b60405180910390fd5b6000611f7483836000611b6b565b9050600073ffffffffffffffffffffffffffffffffffffffff168173ffffffffffffffffffffffffffffffffffffffff1603611fe757816040517f7e273289000000000000000000000000000000000000000000000000000000008152600401611fde9190612ad2565b60405180910390fd5b8373ffffffffffffffffffffffffffffffffffffffff168173ffffffffffffffffffffffffffffffffffffffff161461205b578382826040517f64283d7b00000000000000000000000000000000000000000000000000000000815260040161205293929190613181565b60405180910390fd5b50505050565b60008373ffffffffffffffffffffffffffffffffffffffff163b1115612212578273ffffffffffffffffffffffffffffffffffffffff1663150b7a026120a5611a58565b8685856040518563ffffffff1660e01b81526004016120c79493929190613715565b6020604051808303816000875af192505050801561210357506040513d601f19601f820116820180604052508101906121009190613776565b60015b612187573d8060008114612133576040519150601f19603f3d011682016040523d82523d6000602084013e612138565b606091505b50600081510361217f57836040517f64a0ae920000000000000000000000000000000000000000000000000000000081526004016121769190612a3c565b60405180910390fd5b805181602001fd5b63150b7a0260e01b7bffffffffffffffffffffffffffffffffffffffffffffffffffffffff1916817bffffffffffffffffffffffffffffffffffffffffffffffffffffffff19161461221057836040517f64a0ae920000000000000000000000000000000000000000000000000000000081526004016122079190612a3c565b60405180910390fd5b505b50505050565b606060405180602001604052806000815250905090565b60606000600161223e846125c3565b01905060008167ffffffffffffffff81111561225d5761225c612dd6565b5b6040519080825280601f01601f19166020018201604052801561228f5781602001600182028036833780820191505090505b509050600082602001820190505b6001156122f2578080600190039150507f3031323334353637383961626364656600000000000000000000000000000000600a86061a8153600a85816122e6576122e56134f2565b5b0494506000850361229d575b819350505050919050565b60006002600083815260200190815260200160002060009054906101000a900473ffffffffffffffffffffffffffffffffffffffff169050919050565b80806123735750600073ffffffffffffffffffffffffffffffffffffffff168273ffffffffffffffffffffffffffffffffffffffff1614155b156124a757600061238384611993565b9050600073ffffffffffffffffffffffffffffffffffffffff168373ffffffffffffffffffffffffffffffffffffffff16141580156123ee57508273ffffffffffffffffffffffffffffffffffffffff168173ffffffffffffffffffffffffffffffffffffffff1614155b801561240157506123ff8184611895565b155b1561244357826040517fa9fbf51f00000000000000000000000000000000000000000000000000000000815260040161243a9190612a3c565b60405180910390fd5b81156124a557838573ffffffffffffffffffffffffffffffffffffffff168273ffffffffffffffffffffffffffffffffffffffff167f8c5be1e5ebec7d5bd14f71427d1e84f3dd0314c0f7b2291e5b200ac8c7c3b92560405160405180910390a45b505b836004600085815260200190815260200160002060006101000a81548173ffffffffffffffffffffffffffffffffffffffff021916908373ffffffffffffffffffffffffffffffffffffffff16021790555050505050565b61250a838383612716565b6125be57600073ffffffffffffffffffffffffffffffffffffffff168373ffffffffffffffffffffffffffffffffffffffff160361257f57806040517f7e2732890000000000000000000000000000000000000000000000000000000081526004016125769190612ad2565b60405180910390fd5b81816040517f177e802f0000000000000000000000000000000000000000000000000000000081526004016125b5929190613697565b60405180910390fd5b505050565b600080600090507a184f03e93ff9f4daa797ed6e38ed64bf6a1f0100000000000000008310612621577a184f03e93ff9f4daa797ed6e38ed64bf6a1f0100000000000000008381612617576126166134f2565b5b0492506040810190505b6d04ee2d6d415b85acef8100000000831061265e576d04ee2d6d415b85acef81000000008381612654576126536134f2565b5b0492506020810190505b662386f26fc10000831061268d57662386f26fc100008381612683576126826134f2565b5b0492506010810190505b6305f5e10083106126b6576305f5e10083816126ac576126ab6134f2565b5b0492506008810190505b61271083106126db5761271083816126d1576126d06134f2565b5b0492506004810190505b606483106126fe57606483816126f4576126f36134f2565b5b0492506002810190505b600a831061270d576001810190505b80915050919050565b60008073ffffffffffffffffffffffffffffffffffffffff168373ffffffffffffffffffffffffffffffffffffffff16141580156127ce57508273ffffffffffffffffffffffffffffffffffffffff168473ffffffffffffffffffffffffffffffffffffffff16148061278f575061278e8484611895565b5b806127cd57508273ffffffffffffffffffffffffffffffffffffffff166127b583611a1b565b73ffffffffffffffffffffffffffffffffffffffff16145b5b90509392505050565b6040518060800160405280600073ffffffffffffffffffffffffffffffffffffffff16815260200160008152602001600081526020016000151581525090565b6000604051905090565b600080fd5b600080fd5b60007fffffffff0000000000000000000000000000000000000000000000000000000082169050919050565b6128608161282b565b811461286b57600080fd5b50565b60008135905061287d81612857565b92915050565b60006020828403121561289957612898612821565b5b60006128a78482850161286e565b91505092915050565b60008115159050919050565b6128c5816128b0565b82525050565b60006020820190506128e060008301846128bc565b92915050565b600081519050919050565b600082825260208201905092915050565b60005b83811015612920578082015181840152602081019050612905565b60008484015250505050565b6000601f19601f8301169050919050565b6000612948826128e6565b61295281856128f1565b9350612962818560208601612902565b61296b8161292c565b840191505092915050565b60006020820190508181036000830152612990818461293d565b905092915050565b6000819050919050565b6129ab81612998565b81146129b657600080fd5b50565b6000813590506129c8816129a2565b92915050565b6000602082840312156129e4576129e3612821565b5b60006129f2848285016129b9565b91505092915050565b600073ffffffffffffffffffffffffffffffffffffffff82169050919050565b6000612a26826129fb565b9050919050565b612a3681612a1b565b82525050565b6000602082019050612a516000830184612a2d565b92915050565b612a6081612a1b565b8114612a6b57600080fd5b50565b600081359050612a7d81612a57565b92915050565b60008060408385031215612a9a57612a99612821565b5b6000612aa885828601612a6e565b9250506020612ab9858286016129b9565b9150509250929050565b612acc81612998565b82525050565b6000602082019050612ae76000830184612ac3565b92915050565b600080600060608486031215612b0657612b05612821565b5b6000612b1486828701612a6e565b9350506020612b2586828701612a6e565b9250506040612b36868287016129b9565b9150509250925092565b600060208284031215612b5657612b55612821565b5b6000612b6484828501612a6e565b91505092915050565b60008060408385031215612b8457612b83612821565b5b6000612b92858286016129b9565b9250506020612ba3858286016129b9565b9150509250929050565b600081519050919050565b600082825260208201905092915050565b6000819050602082019050919050565b612be281612998565b82525050565b6000612bf48383612bd9565b60208301905092915050565b6000602082019050919050565b6000612c1882612bad565b612c228185612bb8565b9350612c2d83612bc9565b8060005b83811015612c5e578151612c458882612be8565b9750612c5083612c00565b925050600181019050612c31565b5085935050505092915050565b60006020820190508181036000830152612c858184612c0d565b905092915050565b612c96816128b0565b8114612ca157600080fd5b50565b600081359050612cb381612c8d565b92915050565b60008060408385031215612cd057612ccf612821565b5b6000612cde85828601612a6e565b9250506020612cef85828601612ca4565b9150509250929050565b612d0281612a1b565b82525050565b612d11816128b0565b82525050565b608082016000820151612d2d6000850182612cf9565b506020820151612d406020850182612bd9565b506040820151612d536040850182612bd9565b506060820151612d666060850182612d08565b50505050565b6000608082019050612d816000830184612d17565b92915050565b6000608082019050612d9c6000830187612a2d565b612da96020830186612ac3565b612db66040830185612ac3565b612dc360608301846128bc565b95945050505050565b600080fd5b600080fd5b7f4e487b7100000000000000000000000000000000000000000000000000000000600052604160045260246000fd5b612e0e8261292c565b810181811067ffffffffffffffff82111715612e2d57612e2c612dd6565b5b80604052505050565b6000612e40612817565b9050612e4c8282612e05565b919050565b600067ffffffffffffffff821115612e6c57612e6b612dd6565b5b612e758261292c565b9050602081019050919050565b82818337600083830152505050565b6000612ea4612e9f84612e51565b612e36565b905082815260208101848484011115612ec057612ebf612dd1565b5b612ecb848285612e82565b509392505050565b600082601f830112612ee857612ee7612dcc565b5b8135612ef8848260208601612e91565b91505092915050565b60008060008060808587031215612f1b57612f1a612821565b5b6000612f2987828801612a6e565b9450506020612f3a87828801612a6e565b9350506040612f4b878288016129b9565b925050606085013567ffffffffffffffff811115612f6c57612f6b612826565b5b612f7887828801612ed3565b91505092959194509250565b6000819050919050565b6000612fa9612fa4612f9f846129fb565b612f84565b6129fb565b9050919050565b6000612fbb82612f8e565b9050919050565b6000612fcd82612fb0565b9050919050565b612fdd81612fc2565b82525050565b6000602082019050612ff86000830184612fd4565b92915050565b6000806040838503121561301557613014612821565b5b600061302385828601612a6e565b925050602061303485828601612a6e565b9150509250929050565b7f4e487b7100000000000000000000000000000000000000000000000000000000600052602260045260246000fd5b6000600282049050600182168061308557607f821691505b6020821081036130985761309761303e565b5b50919050565b7f486f7573657320616c726561647920636c61696d656400000000000000000000600082015250565b60006130d46016836128f1565b91506130df8261309e565b602082019050919050565b60006020820190508181036000830152613103816130c7565b9050919050565b7f4e487b7100000000000000000000000000000000000000000000000000000000600052601160045260246000fd5b600061314482612998565b91507fffffffffffffffffffffffffffffffffffffffffffffffffffffffffffffffff82036131765761317561310a565b5b600182019050919050565b60006060820190506131966000830186612a2d565b6131a36020830185612ac3565b6131b06040830184612a2d565b949350505050565b7f4e6f7420746865206f776e657200000000000000000000000000000000000000600082015250565b60006131ee600d836128f1565b91506131f9826131b8565b602082019050919050565b6000602082019050818103600083015261321d816131e1565b9050919050565b7f416c7265616479206c6973746564000000000000000000000000000000000000600082015250565b600061325a600e836128f1565b915061326582613224565b602082019050919050565b600060208201905081810360008301526132898161324d565b9050919050565b60006060820190506132a56000830186612ac3565b6132b26020830185612ac3565b6132bf6040830184612a2d565b949350505050565b60006132d282612998565b91506132dd83612998565b92508282039050818111156132f5576132f461310a565b5b92915050565b7f4e487b7100000000000000000000000000000000000000000000000000000000600052603260045260246000fd5b7f486f757365206e6f7420666f722073616c650000000000000000000000000000600082015250565b60006133606012836128f1565b915061336b8261332a565b602082019050919050565b6000602082019050818103600083015261338f81613353565b9050919050565b7f43616e206e6f7420627579206f776e656420686f757365000000000000000000600082015250565b60006133cc6017836128f1565b91506133d782613396565b602082019050919050565b600060208201905081810360008301526133fb816133bf565b9050919050565b600081519050613411816129a2565b92915050565b60006020828403121561342d5761342c612821565b5b600061343b84828501613402565b91505092915050565b7f4e6f7420656e6f75676820746f6b656e73000000000000000000000000000000600082015250565b600061347a6011836128f1565b915061348582613444565b602082019050919050565b600060208201905081810360008301526134a98161346d565b9050919050565b60006134bb82612998565b91506134c683612998565b92508282026134d481612998565b915082820484148315176134eb576134ea61310a565b5b5092915050565b7f4e487b7100000000000000000000000000000000000000000000000000000000600052601260045260246000fd5b600061352c82612998565b915061353783612998565b925082613547576135466134f2565b5b828204905092915050565b60006060820190506135676000830186612a2d565b6135746020830185612a2d565b6135816040830184612ac3565b949350505050565b60008151905061359881612c8d565b92915050565b6000602082840312156135b4576135b3612821565b5b60006135c284828501613589565b91505092915050565b600081905092915050565b60006135e1826128e6565b6135eb81856135cb565b93506135fb818560208601612902565b80840191505092915050565b600061361382856135d6565b915061361f82846135d6565b91508190509392505050565b7f4574686572207265717569726564000000000000000000000000000000000000600082015250565b6000613661600e836128f1565b915061366c8261362b565b602082019050919050565b6000602082019050818103600083015261369081613654565b9050919050565b60006040820190506136ac6000830185612a2d565b6136b96020830184612ac3565b9392505050565b600081519050919050565b600082825260208201905092915050565b60006136e7826136c0565b6136f181856136cb565b9350613701818560208601612902565b61370a8161292c565b840191505092915050565b600060808201905061372a6000830187612a2d565b6137376020830186612a2d565b6137446040830185612ac3565b818103606083015261375681846136dc565b905095945050505050565b60008151905061377081612857565b92915050565b60006020828403121561378c5761378b612821565b5b600061379a84828501613761565b9150509291505056fea26469706673582212203c47bdacd5beea690c68aac63175586f844b18b5269168b6479a5fd0ad24026464736f6c6343000814003360806040523480156200001157600080fd5b5060405162001b0638038062001b068339818101604052810190620000379190620004ff565b818181600390816200004a9190620007cf565b5080600490816200005c9190620007cf565b5050506200009e3362000074620000a660201b60201c565b600a62000082919062000a46565b620f424062000092919062000a97565b620000af60201b60201c565b505062000bea565b60006012905090565b600073ffffffffffffffffffffffffffffffffffffffff168273ffffffffffffffffffffffffffffffffffffffff1603620001245760006040517fec442f050000000000000000000000000000000000000000000000000000000081526004016200011b919062000b27565b60405180910390fd5b62000138600083836200013c60201b60201c565b5050565b600073ffffffffffffffffffffffffffffffffffffffff168373ffffffffffffffffffffffffffffffffffffffff16036200019257806002600082825462000185919062000b44565b9250508190555062000268565b60008060008573ffffffffffffffffffffffffffffffffffffffff1673ffffffffffffffffffffffffffffffffffffffff1681526020019081526020016000205490508181101562000221578381836040517fe450d38c000000000000000000000000000000000000000000000000000000008152600401620002189392919062000b90565b60405180910390fd5b8181036000808673ffffffffffffffffffffffffffffffffffffffff1673ffffffffffffffffffffffffffffffffffffffff16815260200190815260200160002081905550505b600073ffffffffffffffffffffffffffffffffffffffff168273ffffffffffffffffffffffffffffffffffffffff1603620002b3578060026000828254039250508190555062000300565b806000808473ffffffffffffffffffffffffffffffffffffffff1673ffffffffffffffffffffffffffffffffffffffff168152602001908152602001600020600082825401925050819055505b8173ffffffffffffffffffffffffffffffffffffffff168373ffffffffffffffffffffffffffffffffffffffff167fddf252ad1be2c89b69c2b068fc378daa952ba7f163c4a11628f55a4df523b3ef836040516200035f919062000bcd565b60405180910390a3505050565b6000604051905090565b600080fd5b600080fd5b600080fd5b600080fd5b6000601f19601f8301169050919050565b7f4e487b7100000000000000000000000000000000000000000000000000000000600052604160045260246000fd5b620003d5826200038a565b810181811067ffffffffffffffff82111715620003f757620003f66200039b565b5b80604052505050565b60006200040c6200036c565b90506200041a8282620003ca565b919050565b600067ffffffffffffffff8211156200043d576200043c6200039b565b5b62000448826200038a565b9050602081019050919050565b60005b838110156200047557808201518184015260208101905062000458565b60008484015250505050565b60006200049862000492846200041f565b62000400565b905082815260208101848484011115620004b757620004b662000385565b5b620004c484828562000455565b509392505050565b600082601f830112620004e457620004e362000380565b5b8151620004f684826020860162000481565b91505092915050565b6000806040838503121562000519576200051862000376565b5b600083015167ffffffffffffffff8111156200053a57620005396200037b565b5b6200054885828601620004cc565b925050602083015167ffffffffffffffff8111156200056c576200056b6200037b565b5b6200057a85828601620004cc565b9150509250929050565b600081519050919050565b7f4e487b7100000000000000000000000000000000000000000000000000000000600052602260045260246000fd5b60006002820490506001821680620005d757607f821691505b602082108103620005ed57620005ec6200058f565b5b50919050565b60008190508160005260206000209050919050565b60006020601f8301049050919050565b600082821b905092915050565b600060088302620006577fffffffffffffffffffffffffffffffffffffffffffffffffffffffffffffffff8262000618565b62000663868362000618565b95508019841693508086168417925050509392505050565b6000819050919050565b6000819050919050565b6000620006b0620006aa620006a4846200067b565b62000685565b6200067b565b9050919050565b6000819050919050565b620006cc836200068f565b620006e4620006db82620006b7565b84845462000625565b825550505050565b600090565b620006fb620006ec565b62000708818484620006c1565b505050565b5b81811015620007305762000724600082620006f1565b6001810190506200070e565b5050565b601f8211156200077f576200074981620005f3565b620007548462000608565b8101602085101562000764578190505b6200077c620007738562000608565b8301826200070d565b50505b505050565b600082821c905092915050565b6000620007a46000198460080262000784565b1980831691505092915050565b6000620007bf838362000791565b9150826002028217905092915050565b620007da8262000584565b67ffffffffffffffff811115620007f657620007f56200039b565b5b620008028254620005be565b6200080f82828562000734565b600060209050601f83116001811462000847576000841562000832578287015190505b6200083e8582620007b1565b865550620008ae565b601f1984166200085786620005f3565b60005b8281101562000881578489015182556001820191506020850194506020810190506200085a565b86831015620008a157848901516200089d601f89168262000791565b8355505b6001600288020188555050505b505050505050565b7f4e487b7100000000000000000000000000000000000000000000000000000000600052601160045260246000fd5b60008160011c9050919050565b6000808291508390505b600185111562000944578086048111156200091c576200091b620008b6565b5b60018516156200092c5780820291505b80810290506200093c85620008e5565b9450620008fc565b94509492505050565b6000826200095f576001905062000a32565b816200096f576000905062000a32565b81600181146200098857600281146200099357620009c9565b600191505062000a32565b60ff841115620009a857620009a7620008b6565b5b8360020a915084821115620009c257620009c1620008b6565b5b5062000a32565b5060208310610133831016604e8410600b841016171562000a035782820a905083811115620009fd57620009fc620008b6565b5b62000a32565b62000a128484846001620008f2565b9250905081840481111562000a2c5762000a2b620008b6565b5b81810290505b9392505050565b600060ff82169050919050565b600062000a53826200067b565b915062000a608362000a39565b925062000a8f7fffffffffffffffffffffffffffffffffffffffffffffffffffffffffffffffff84846200094d565b905092915050565b600062000aa4826200067b565b915062000ab1836200067b565b925082820262000ac1816200067b565b9150828204841483151762000adb5762000ada620008b6565b5b5092915050565b600073ffffffffffffffffffffffffffffffffffffffff82169050919050565b600062000b0f8262000ae2565b9050919050565b62000b218162000b02565b82525050565b600060208201905062000b3e600083018462000b16565b92915050565b600062000b51826200067b565b915062000b5e836200067b565b925082820190508082111562000b795762000b78620008b6565b5b92915050565b62000b8a816200067b565b82525050565b600060608201905062000ba7600083018662000b16565b62000bb6602083018562000b7f565b62000bc5604083018462000b7f565b949350505050565b600060208201905062000be4600083018462000b7f565b92915050565b610f0c8062000bfa6000396000f3fe608060405234801561001057600080fd5b506004361061009e5760003560e01c806340c10f191161006657806340c10f191461015d57806370a082311461017957806395d89b41146101a9578063a9059cbb146101c7578063dd62ed3e146101f75761009e565b806306fdde03146100a3578063095ea7b3146100c157806318160ddd146100f157806323b872dd1461010f578063313ce5671461013f575b600080fd5b6100ab610227565b6040516100b89190610b60565b60405180910390f35b6100db60048036038101906100d69190610c1b565b6102b9565b6040516100e89190610c76565b60405180910390f35b6100f96102dc565b6040516101069190610ca0565b60405180910390f35b61012960048036038101906101249190610cbb565b6102e6565b6040516101369190610c76565b60405180910390f35b610147610315565b6040516101549190610d2a565b60405180910390f35b61017760048036038101906101729190610c1b565b61031e565b005b610193600480360381019061018e9190610d45565b61032c565b6040516101a09190610ca0565b60405180910390f35b6101b1610374565b6040516101be9190610b60565b60405180910390f35b6101e160048036038101906101dc9190610c1b565b610406565b6040516101ee9190610c76565b60405180910390f35b610211600480360381019061020c9190610d72565b610429565b60405161021e9190610ca0565b60405180910390f35b60606003805461023690610de1565b80601f016020809104026020016040519081016040528092919081815260200182805461026290610de1565b80156102af5780601f10610284576101008083540402835291602001916102af565b820191906000526020600020905b81548152906001019060200180831161029257829003601f168201915b5050505050905090565b6000806102c46104b0565b90506102d18185856104b8565b600191505092915050565b6000600254905090565b6000806102f16104b0565b90506102fe8582856104ca565b61030985858561055e565b60019150509392505050565b60006012905090565b6103288282610652565b5050565b60008060008373ffffffffffffffffffffffffffffffffffffffff1673ffffffffffffffffffffffffffffffffffffffff168152602001908152602001600020549050919050565b60606004805461038390610de1565b80601f01602080910402602001604051908101604052809291908181526020018280546103af90610de1565b80156103fc5780601f106103d1576101008083540402835291602001916103fc565b820191906000526020600020905b8154815290600101906020018083116103df57829003601f168201915b5050505050905090565b6000806104116104b0565b905061041e81858561055e565b600191505092915050565b6000600160008473ffffffffffffffffffffffffffffffffffffffff1673ffffffffffffffffffffffffffffffffffffffff16815260200190815260200160002060008373ffffffffffffffffffffffffffffffffffffffff1673ffffffffffffffffffffffffffffffffffffffff16815260200190815260200160002054905092915050565b600033905090565b6104c583838360016106d4565b505050565b60006104d68484610429565b90507fffffffffffffffffffffffffffffffffffffffffffffffffffffffffffffffff81146105585781811015610548578281836040517ffb8f41b200000000000000000000000000000000000000000000000000000000815260040161053f93929190610e21565b60405180910390fd5b610557848484840360006106d4565b5b50505050565b600073ffffffffffffffffffffffffffffffffffffffff168373ffffffffffffffffffffffffffffffffffffffff16036105d05760006040517f96c6fd1e0000000000000000000000000000000000000000000000000000000081526004016105c79190610e58565b60405180910390fd5b600073ffffffffffffffffffffffffffffffffffffffff168273ffffffffffffffffffffffffffffffffffffffff16036106425760006040517fec442f050000000000000000000000000000000000000000000000000000000081526004016106399190610e58565b60405180910390fd5b61064d8383836108ab565b505050565b600073ffffffffffffffffffffffffffffffffffffffff168273ffffffffffffffffffffffffffffffffffffffff16036106c45760006040517fec442f050000000000000000000000000000000000000000000000000000000081526004016106bb9190610e58565b60405180910390fd5b6106d0600083836108ab565b5050565b600073ffffffffffffffffffffffffffffffffffffffff168473ffffffffffffffffffffffffffffffffffffffff16036107465760006040517fe602df0500000000000000000000000000000000000000000000000000000000815260040161073d9190610e58565b60405180910390fd5b600073ffffffffffffffffffffffffffffffffffffffff168373ffffffffffffffffffffffffffffffffffffffff16036107b85760006040517f94280d620000000000000000000000000000000000000000000000000000000081526004016107af9190610e58565b60405180910390fd5b81600160008673ffffffffffffffffffffffffffffffffffffffff1673ffffffffffffffffffffffffffffffffffffffff16815260200190815260200160002060008573ffffffffffffffffffffffffffffffffffffffff1673ffffffffffffffffffffffffffffffffffffffff1681526020019081526020016000208190555080156108a5578273ffffffffffffffffffffffffffffffffffffffff168473ffffffffffffffffffffffffffffffffffffffff167f8c5be1e5ebec7d5bd14f71427d1e84f3dd0314c0f7b2291e5b200ac8c7c3b9258460405161089c9190610ca0565b60405180910390a35b50505050565b600073ffffffffffffffffffffffffffffffffffffffff168373ffffffffffffffffffffffffffffffffffffffff16036108fd5780600260008282546108f19190610ea2565b925050819055506109d0565b60008060008573ffffffffffffffffffffffffffffffffffffffff1673ffffffffffffffffffffffffffffffffffffffff16815260200190815260200160002054905081811015610989578381836040517fe450d38c00000000000000000000000000000000000000000000000000000000815260040161098093929190610e21565b60405180910390fd5b8181036000808673ffffffffffffffffffffffffffffffffffffffff1673ffffffffffffffffffffffffffffffffffffffff16815260200190815260200160002081905550505b600073ffffffffffffffffffffffffffffffffffffffff168273ffffffffffffffffffffffffffffffffffffffff1603610a195780600260008282540392505081905550610a66565b806000808473ffffffffffffffffffffffffffffffffffffffff1673ffffffffffffffffffffffffffffffffffffffff168152602001908152602001600020600082825401925050819055505b8173ffffffffffffffffffffffffffffffffffffffff168373ffffffffffffffffffffffffffffffffffffffff167fddf252ad1be2c89b69c2b068fc378daa952ba7f163c4a11628f55a4df523b3ef83604051610ac39190610ca0565b60405180910390a3505050565b600081519050919050565b600082825260208201905092915050565b60005b83811015610b0a578082015181840152602081019050610aef565b60008484015250505050565b6000601f19601f8301169050919050565b6000610b3282610ad0565b610b3c8185610adb565b9350610b4c818560208601610aec565b610b5581610b16565b840191505092915050565b60006020820190508181036000830152610b7a8184610b27565b905092915050565b600080fd5b600073ffffffffffffffffffffffffffffffffffffffff82169050919050565b6000610bb282610b87565b9050919050565b610bc281610ba7565b8114610bcd57600080fd5b50565b600081359050610bdf81610bb9565b92915050565b6000819050919050565b610bf881610be5565b8114610c0357600080fd5b50565b600081359050610c1581610bef565b92915050565b60008060408385031215610c3257610c31610b82565b5b6000610c4085828601610bd0565b9250506020610c5185828601610c06565b9150509250929050565b60008115159050919050565b610c7081610c5b565b82525050565b6000602082019050610c8b6000830184610c67565b92915050565b610c9a81610be5565b82525050565b6000602082019050610cb56000830184610c91565b92915050565b600080600060608486031215610cd457610cd3610b82565b5b6000610ce286828701610bd0565b9350506020610cf386828701610bd0565b9250506040610d0486828701610c06565b9150509250925092565b600060ff82169050919050565b610d2481610d0e565b82525050565b6000602082019050610d3f6000830184610d1b565b92915050565b600060208284031215610d5b57610d5a610b82565b5b6000610d6984828501610bd0565b91505092915050565b60008060408385031215610d8957610d88610b82565b5b6000610d9785828601610bd0565b9250506020610da885828601610bd0565b9150509250929050565b7f4e487b7100000000000000000000000000000000000000000000000000000000600052602260045260246000fd5b60006002820490506001821680610df957607f821691505b602082108103610e0c57610e0b610db2565b5b50919050565b610e1b81610ba7565b82525050565b6000606082019050610e366000830186610e12565b610e436020830185610c91565b610e506040830184610c91565b949350505050565b6000602082019050610e6d6000830184610e12565b92915050565b7f4e487b7100000000000000000000000000000000000000000000000000000000600052601160045260246000fd5b6000610ead82610be5565b9150610eb883610be5565b9250828201905080821115610ed057610ecf610e73565b5b9291505056fea26469706673582212203e93db91d6a3e18a5d6feac2edf6db8de4d5fae024d4a436e0b91051ac577d1f64736f6c63430008140033",
  "linkReferences": {},
  "deployedLinkReferences": {}
}